:020000040800F2
:10000000005000209D0F00082D0F0008330F00083E
:10001000390F00083F0F0008450F000800000000DE
:100020000000000000000000000000004B0F00086E
:10003000570F000800000000630F00086F0F000852
:10004000E50F0008E50F0008E50F0008E50F0008C0
:10005000E50F0008E50F0008E50F0008E50F0008B0
:10006000E50F0008E50F0008E50F0008E50F0008A0
:10007000E50F0008E50F0008E50F0008E50F000890
:10008000E50F0008E50F0008E50F0008E50F000880
:100090007D0F0008E50F0008E50F0008E50F0008D8
:1000A000E50F0008E50F0008E50F0008E50F000860
:1000B000E50F0008E50F0008E50F0008E50F000850
:1000C000E50F0008E50F0008E50F0008E50F000840
:1000D000E50F0008E50F0008E50F0008E50F000830
:1000E000E50F0008E50F0008E50F0008000000001C
:1000F0000000000000000000000000000000000000
:0C01000000000000000000005FF808F1A3
:10010C0010B5054C237833B9044B13B10448AFF345
:10011C0000800123237010BD0C00002000000000A3
:10012C006C2F000808B5034B1BB103490348AFF310
:10013C00008008BD00000000100000206C2F00089B
:10014C0080B58CB000AF78600B46FB70FB78002B51
:10015C0039D10123BB620A23FB610023BB612F4B06
:10016C001A682F4B1B685A402E4B1B6853401B0EB2
:10017C005B01BB600023FB60284B1A68284B1B6893
:10018C005A40284B1B6853401B0E5B013B610023FC
:10019C007B6100233B6201237B620023FB6207F13E
:1001AC0008031946786801F076F80346002B01D055
:1001BC0001232FE0786801F037F90221786801F00B
:1001CC0067FB002326E00123BB620A23FB610023AB
:1001DC00BB610023BB600023FB6000233B61002359
:1001EC007B6100233B6201237B620023FB6207F1EE
:1001FC0008031946786801F04EF80346002B01D02D
:10020C00012307E0786801F00FF90221786801F00A
:10021C003FFB002318463037BD4680BDE8F7FF1F73
:10022C00ECF7FF1FF0F7FF1F80B584B000AFF8604C
:10023C007B600B46FB721346BB720E4B00229A601E
:10024C00FB7A0C4A13600B4B0022DA60BB7A094A2A
:10025C001361BB697A680749F86801F029F903460C
:10026C00002B01D0012300E0002318461037BD46B7
:10027C0080BD00BF2800002080B483B000AF786040
:10028C007B68002B02D0044A7B68136000BF0C37DC
:10029C00BD4680BC704700BF7000002080B582B0A6
:1002AC0000AF7860064B074A0021786801F0CFF95F
:1002BC00054B1B68984700BF0837BD4680BD00BF83
:1002CC005C000020400000207000002080B483B04F
:1002DC0000AF78607B6800221A7000BF0C37BD46F7
:1002EC0080BC704780B584B000AF78600B46FB7063
:1002FC001346BB707B681B780F2B28D87B681B7848
:10030C007A685B001344FA785A707B681B787A68B9
:10031C005B001344BA789A707B681B78013BDA0F48
:10032C0013445B10FB6008E0FB68DBB2194678688D
:10033C0000F043F8FB68013BFB60FB68002BF3DA31
:10034C007B681B780133DAB27B681A7000E000BF5F
:10035C001037BD4680BD80B582B000AF78607B6839
:10036C001B78002B01D1002318E07B681B78013B24
:10037C00DBB21A460021786800F068F87B681B78BD
:10038C00013BDAB27B681A700021786800F015F82E
:10039C007B681B787A685B0013445B7818460837D7
:1003AC00BD4680BD80B483B000AF78607B685B785D
:1003BC0018460C37BD4680BC704780B584B000AF82
:1003CC0078600B46FB70FB78FB73FB785B00DBB251
:1003DC000133BB73BB7B01337B737B681B78BA7BAC
:1003EC009A420DD2BB7B7A685B0013449A78FB78F7
:1003FC0079685B000B449B789A4201D2BB7BFB7300
:10040C007B681B787A7B9A420DD27B7B7A685B0087
:10041C0013449A78FB7879685B000B449B789A427A
:10042C0001D27B7BFB73FA7BFB789A420AD0FA7879
:10043C00FB7B1946786800F009F8FB7B1946786855
:10044C00FFF7BBFF00BF1037BD4680BD80B485B041
:10045C0000AF78600B46FB701346BB70FB787A6874
:10046C005B00134407F10C0201331B881380BB782B
:10047C00FA78796852000A4479685B000B440132BF
:10048C0001331B881380BB787A685B0013440133FB
:10049C0007F10C0212881A8000BF1437BD4680BCCD
:1004AC00704780B582B000AF78607B68002283F81B
:1004BC00DB217B68002283F8DD217B68002283F836
:1004CC00E1217B68002283F8DE217B68002283F81F
:1004DC00DF217B68002283F8E0217B68012283F80E
:1004EC00E2217B68012283F8DC217B68002283F8FF
:1004FC00E4217B6803F5DD731846FFF7E7FE7B68A4
:10050C0003F299131846FFF7E1FE7B6803F5C473F9
:10051C00184600F02EF900BF0837BD4680BD80B5E7
:10052C0082B000AF78600B46FB701346BB70BB7893
:10053C00012B2FD87B6893F8DD310133DAB27B685D
:10054C0083F8DD217B6893F8DE310133DAB27B6806
:10055C0083F8DE21BA787B68F97803F82210BB782F
:10056C007A689B001344BA789A70BB787A689B00BF
:10057C00134400225A70BB787A689B001344002203
:10058C00DA707B6803F5C473BA781146184600F02C
:10059C00FCF800E000BF0837BD4680BD80B584B0D4
:1005AC0000AFF8603B1D83E80600FB6893F8E1316F
:1005BC003F2B30D8FB6893F8E1311946FA680B46AB
:1005CC005B000B445B00134408331A463B1D186850
:1005DC0010609B889380FB6893F8E1311946FA68A8
:1005EC000B465B000B445B0013440C3300221A7067
:1005FC00FB6803F5DD70FB6893F8E1317A791946F5
:10060C00FFF770FEFB6893F8E1310133DAB2FB6857
:10061C0083F8E12100E000BF1037BD4680BD80B5F6
:10062C0086B000AFF860381D80E80600FB70FB68F0
:10063C0093F8DE31002B71D000237B6102E07B69E3
:10064C0001337B613B7A1A467B699342F7DBFB787B
:10065C00FA689B00134401225A70FB783979FA68C6
:10066C009B0013440A46DA70FB6803F299137A79FB
:10067C00F9781846FFF736FEFB6893F8DF31013343
:10068C00DAB2FB6883F8DF21FB6893F8DE31013BBB
:10069C00DAB2FB6883F8DE21FB6893F8E831013BA2
:1006AC00DAB2FB6883F8E821FB6893F8E831002B99
:1006BC0035D1FB68002283F8E421FB6893F8E13123
:1006CC00013BDAB2FB6883F8E121FB6803F5DD73CB
:1006DC001846FFF740FEFB6893F8DE31002B1ED066
:1006EC00FB6893F8E131002B19D0FB6803F5DD733F
:1006FC001846FFF757FE03461846FA68F968034692
:10070C005B0003445B000B4403F1080102F5F27338
:10071C000A461168196092889A8000E000BF183769
:10072C00BD4680BD80B582B000AF78607B6803F2B7
:10073C0099131846FFF70FFE03461A467B6883F899
:10074C00DB217B6893F8DF31013BDAB27B6883F8FD
:10075C00DF217B6893F8DB317A689B00134402221B
:10076C005A707B68002283F8DC2100BF0837BD4635
:10077C0080BD80B483B000AF78607B6800221A70B3
:10078C0000BF0C37BD4680BC704780B483B000AF4F
:10079C0078600B46FB707B681B780F2B0DD87B6841
:1007AC001B781A467B681344FA785A707B681B785E
:1007BC000133DAB27B681A7000E000BF0C37BD461B
:1007CC0080BC704780B483B000AF78607B681B78C6
:1007DC00002B01D100230BE07B681B78013BDAB2C4
:1007EC007B681A707B681B781A467B6813445B78AD
:1007FC0018460C37BD4680BC704780B483B000AF40
:10080C0078607B681B78013B7A6813445B781846E8
:10081C000C37BD4680BC704780B584B000AF00F08B
:10082C00DDFB00F043F800F00BF900F085F800F068
:10083C00B9F801211948FFF783FC1948FFF731FE7D
:10084C0000233B7243F224737B8101233B7301230E
:10085C007B7201233B7043F224737B8001233B7139
:10086C0001237B7007F1080393E806000C48FFF79F
:10087C0095FE3B4693E806000948FFF78FFE0948B2
:10088C00FFF7FAFC00228021074801F0DBFC012273
:10089C004FF48071044801F0D5FCFEE77400002091
:1008AC00E40000207D0B0008000C014080B590B0E6
:1008BC0000AF07F1180328220021184602F024FB90
:1008CC003B1D00221A605A609A60DA601A6101239B
:1008DC00BB614FF48033FB6100233B620123BB629D
:1008EC0002237B634FF48033BB634FF4E013FB6351
:1008FC0007F11803184601F0BDFC0346002B01D08C
:10090C0000F076FA0F237B600223BB600023FB60B0
:10091C004FF480633B6100237B613B1D0221184631
:10092C0001F02AFF0346002B01D000F061FA00BF52
:10093C004037BD4680BD000080B500AF174B184A4C
:10094C001A60164B12225A60144B00229A60134BF9
:10095C000022DA60114B4FF480321A610F4B0022E7
:10096C005A610E4B00221A760C4B00225A760B4B16
:10097C0000229A76094B0022DA76084B00221A776D
:10098C00064B00225A77054800F08AFB0346002BE1
:10099C0001D000F02DFA00BF80BD00BF7400002014
:1009AC000064004080B586B000AF07F10803002258
:1009BC001A605A609A60DA603B4600221A605A60EC
:1009CC001E4B4FF080421A601C4B4FF47A725A60E7
:1009DC001A4B00229A60194B44F25062DA60174BA2
:1009EC0000221A61154B80229A61144802F020F8FB
:1009FC000346002B01D000F0FBF94FF48053BB6091
:100A0C0007F1080319460D4802F061F80346002B64
:100A1C0001D000F0EDF900233B6000237B603B46E6
:100A2C001946064802F012FA0346002B01D000F0DA
:100A3C00DFF900BF1837BD4680BD00BF9C00002009
:100A4C0080B588B000AF07F1100300221A605A601D
:100A5C009A60DA60424B9B69414A43F01003936100
:100A6C003F4B9B6903F01003FB60FB683C4B9B699D
:100A7C003B4A43F020039361394B9B6903F02003FD
:100A8C00BB60BB68364B9B69354A43F004039361EA
:100A9C00334B9B6903F004037B607B68304B9B6991
:100AAC002F4A43F0080393612D4B9B6903F0080315
:100ABC003B603B6800224FF400512A4801F0C2FB16
:100ACC0001222021284801F0BDFB00224FF498613F
:100ADC00254801F0B7FB00224FF4CC71234801F0FC
:100AEC00B1FB4FF400533B6101237B610023BB61DD
:100AFC000223FB6107F1100319461A4801F01EFA94
:100B0C0020233B6101237B610123BB610223FB6139
:100B1C0007F110031946144801F010FA4FF49863CA
:100B2C003B6101237B610023BB610223FB6107F165
:100B3C00100319460C4801F001FA4FF4CC733B61D9
:100B4C0001237B610023BB610223FB6107F11003CE
:100B5C001946064801F0F2F900BF2037BD4680BDAA
:100B6C00001002400010014000080140000C014040
:100B7C0080B58AB002AF00221821944801F062FBC4
:100B8C00934B93F8E231012B18D1924B1B68DBB2DB
:100B9C008F4A92F8DD2119468D48FFF7C0FC8C4B2B
:100BAC0093F8DD31022B04D1894B032283F8E22127
:100BBC0004E001228021854801F044FB844B93F82A
:100BCC00E231032B77D18448FFF7ECFB0346184640
:100BDC007F4A7F4903465B0003445B000B4403F1EF
:100BEC00080102F5F2730A461068186092889A8020
:100BFC007948FFF7D7FB03467B777848FFF7FDFD75
:100C0C0003463B77724B93F8DE21714B93F8E83136
:100C1C009A420FD26E4B93F8E831012B05D9002282
:100C2C004FF400516E4801F00DFB694B052283F81F
:100C3C00E221C7E0664B93F8DE31012B08D13B7FF4
:100C4C00002B05D100224FF40051654801F0FAFA4F
:100C5C007A7F5F4913465B0013445B000B440833F7
:100C6C001B783B757A7F5A4913465B0013445B0033
:100C7C000B440A331B881B0A9BB2DBB27B757A7F51
:100C8C00534913465B0013445B000B440A331B8827
:100C9C00DBB2BB754E4B042283F8E2213B7F4C4AFE
:100CAC0012F8231007F114034E4A009203224E4807
:100CBC00FFF7BAFA86E0464B93F8E231042B4ED19B
:100CCC004A4B1B78052B4AD14348FFF76BFB034675
:100CDC00FB774248FFF776FD0346BB77FA7FB97F77
:100CEC003B4813465B0013445B00034408331A680B
:100CFC0010469B88002263F30F020B4601463448D2
:100D0C00FFF78DFC324B93F8DC31002B13D03048BD
:100D1C00FFF708FD40233B732D4B93F8DB311A464C
:100D2C002B4B13F8221007F10C032E4A00920122D0
:100D3C002D48FFF779FA264B93F8DE31002B09D0BA
:100D4C00234B93F8E131002B04D0214B032283F881
:100D5C00E22137E01E4B052283F8E22132E0234BDF
:100D6C001B78032B2ED11A4B012283F8DC21184B54
:100D7C0093F8DB31164A9B00134400225A70144B33
:100D8C0093F8DF31002B1DD01148FFF7CBFC104B33
:100D9C0093F8DB31002B05D100224FF400511048A1
:100DAC0001F050FA40233B71094B93F8DB311A46A2
:100DBC00074B13F822103B1D0A4A009201220A48E5
:100DCC00FFF732FA2037BD4680BD00BF000C014052
:100DDC00E4000020400000209E0200206C02002055
:100DEC000010014064000020740000205C00002012
:100DFC0080B400AF72B600BFFEE7000080B483B0D1
:100E0C0000AF0E4B9B690D4A43F0010393610B4BF2
:100E1C009B6903F001037B607B68084BDB69074A25
:100E2C0043F08053D361054BDB6903F080533B6087
:100E3C003B6800BF0C37BD4680BC704700100240B9
:100E4C0080B588B000AF786007F1100300221A60FB
:100E5C005A609A60DA607B681B68204A934239D1E9
:100E6C001F4BDB691E4A43F00073D3611C4BDB69DB
:100E7C0003F00073FB60FB68194B9B69184A43F045
:100E8C0004039361164B9B6903F00403BB60BB68BE
:100E9C004FF400633B6100237B610023BB6107F1CE
:100EAC00100319460F4801F049F84FF480533B6189
:100EBC0002237B610323FB6107F1100319460948E8
:100ECC0001F03CF800220021142001F000F814205D
:100EDC0001F019F800BF2037BD4680BD006400400A
:100EEC00001002400008014080B485B000AF78606B
:100EFC007B681B68B3F1804F0BD1084BDB69074A49
:100F0C0043F00103D361054BDB6903F00103FB6084
:100F1C00FB6800BF1437BD4680BC70470010024010
:100F2C0080B400AFFEE780B400AFFEE780B400AF42
:100F3C00FEE780B400AFFEE780B400AFFEE780B4FC
:100F4C0000AF00BFBD4680BC704780B400AF00BF8F
:100F5C00BD4680BC704780B400AF00BFBD4680BCAE
:100F6C00704780B500AF00F07FF800BF80BD000077
:100F7C0080B500AF024800F0B0FC00BF80BD00BFE0
:100F8C007400002080B400AF00BFBD4680BC704729
:100F9C00FFF7F8FF0B480C490C4A002302E0D45829
:100FAC00C4500433C4188C42F9D3094A094C0023A9
:100FBC0001E013600432A242FBD301F0ADFFFFF756
:100FCC002BFC7047000000200C000020B02F000804
:100FDC000C000020D4020020FEE7000080B500AF1A
:100FEC00084B1B68074A43F010031360032000F002
:100FFC0063FF0F2000F008F8FFF700FF00231846EE
:10100C0080BD00BF0020024080B582B000AF786088
:10101C00124B1A68124B1B7819464FF47A73B3FBB8
:10102C00F1F3B2FBF3F3184600F07BFF0346002B01
:10103C0001D001230EE07B680F2B0AD800227968BF
:10104C004FF0FF3000F043FF064A7B68136000232B
:10105C0000E0012318460837BD4680BD0000002083
:10106C00080000200400002080B400AF054B1B7862
:10107C001A46054B1B681344034A136000BFBD4658
:10108C0080BC704708000020D002002080B400AF64
:10109C00024B1B681846BD4680BC7047D00200202E
:1010AC0080B584B000AF78607B68002B01D1012340
:1010BC00EDE07B6893F82030DBB2002B02D178682E
:1010CC00FFF7BEFE7B681B681A687B681B6842F0E2
:1010DC0001021A60FFF7DAFFF86012E0FFF7D6FFA3
:1010EC000246FB68D31A0A2B0BD97B685B6A43F464
:1010FC0000327B685A627B68052283F8202001232A
:10110C00C5E07B681B685B6803F00103002BE5D02E
:10111C007B681B681A687B681B6822F002021A60E5
:10112C00FFF7B4FFF86012E0FFF7B0FF0246FB6870
:10113C00D31A0A2B0BD97B685B6A43F400327B68A9
:10114C005A627B68052283F8202001239FE07B688C
:10115C001B685B6803F00203002BE5D17B681B7EE8
:10116C00012B08D17B681B681A687B681B6842F0EE
:10117C0080021A6007E07B681B681A687B681B6832
:10118C0022F080021A607B685B7E012B08D17B68A1
:10119C001B681A687B681B6842F040021A6007E003
:1011AC007B681B681A687B681B6822F040021A6017
:1011BC007B689B7E012B08D17B681B681A687B6857
:1011CC001B6842F020021A6007E07B681B681A68F3
:1011DC007B681B6822F020021A607B68DB7E012B87
:1011EC0008D17B681B681A687B681B6822F01002A8
:1011FC001A6007E07B681B681A687B681B6842F002
:10120C0010021A607B681B7F012B08D17B681B685E
:10121C001A687B681B6842F008021A6007E07B685A
:10122C001B681A687B681B6822F008021A607B68CE
:10123C005B7F012B08D17B681B681A687B681B6875
:10124C0042F004021A6007E07B681B681A687B682E
:10125C001B6822F004021A607B689A687B68DB6862
:10126C001A437B681B691A437B685B6942EA03017A
:10127C007B685B685A1E7B681B680A43DA617B6873
:10128C0000225A627B68012283F820200023184632
:10129C001037BD4680BD80B487B000AF7860396030
:1012AC007B681B687B617B6893F82030FB74FB7C4C
:1012BC00012B03D0FB7C022B40F0AA807B69D3F876
:1012CC00003243F001027B69C3F800223B685B6982
:1012DC0003F01F03012202FA03F3FB607B69D3F8CE
:1012EC001C22FB68DB431A407B69C3F81C223B6859
:1012FC00DB69002B23D17B69D3F80C22FB68DB4321
:10130C001A407B69C3F80C223B68DB6819043B6804
:10131C005B689BB23A68526919437B69483243F85F
:10132C0032103B689B6819043B681B689AB23B6897
:10133C005B690A4379694833DB000B445A603B68AC
:10134C00DB69012B22D17B69D3F80C22FB681A4391
:10135C007B69C3F80C223B681B6819043B685B680B
:10136C009BB23A68526919437B69483243F8321090
:10137C003B689B6819043B68DB689AB23B685B6905
:10138C000A4379694833DB000B445A603B689B691C
:10139C00002B09D17B69D3F80422FB68DB431A408C
:1013AC007B69C3F8042207E07B69D3F80422FB684D
:1013BC001A437B69C3F804223B681B69002B09D1D3
:1013CC007B69D3F81422FB68DB431A407B69C3F8B2
:1013DC00142207E07B69D3F81422FB681A437B695B
:1013EC00C3F814223B681B6A012B07D17B69D3F825
:1013FC001C22FB681A437B69C3F81C227B69D3F857
:10140C00003223F001027B69C3F80022002306E0BE
:10141C007B685B6A43F480227B685A62012318461E
:10142C001C37BD4680BC704780B584B000AF786077
:10143C007B6893F82030DBB2012B2ED17B68022223
:10144C0083F820207B681B681A687B681B6822F075
:10145C0001021A60FFF71AFEF86012E0FFF716FEA1
:10146C000246FB68D31A0A2B0BD97B685B6A43F4E0
:10147C0000327B685A627B68052283F820200123A6
:10148C0012E07B681B685B6803F00103002BE5D15D
:10149C007B6800225A62002306E07B685B6A43F497
:1014AC0000227B685A62012318461037BD4680BD66
:1014BC0080B489B000AFF860B9607A603B60FB68BB
:1014CC0093F82030FB77FB681B689B68BB61FB7F44
:1014DC00012B03D0FB7F022B40F0AD80BB6903F0E6
:1014EC008063002B0AD1BB6903F00063002B05D18C
:1014FC00BB6903F08053002B00F09580BB691B0E79
:10150C0003F003037B6101227B699A403B681A60FC
:10151C00BB689B68002B0DD1BB681B685A05BB6868
:10152C00DB68F96809681A437B6918331B010B44A3
:10153C001A600FE0BB685B68DA00BB689B681A43F3
:10154C00BB68DB68F96809681A437B6918331B01AF
:10155C000B441A60FB681968BB681A697B691833FD
:10156C001B010B4404331A60BB681B7D012B11D18A
:10157C00FB681A687B6918331B01134404331B681E
:10158C00FA68116843F480727B6918331B010B44B1
:10159C0004331A607B6807331B781A067B680633A2
:1015AC001B781B041A437B6805331B781B021343FF
:1015BC007A68043212781046FA68116843EA00021D
:1015CC007B691B010B4403F5C6731A607B680333FC
:1015DC001B781A067B6802331B781B041A437B6842
:1015EC0001331B781B0213437A6812781046FA6891
:1015FC00116843EA00027B691B010B4403F5C473B9
:10160C001A60FB681A687B6918331B0113441B684A
:10161C00FA68116843F001027B6918331B010B4413
:10162C001A6000230EE0FB685B6A43F40012FB684F
:10163C005A62012306E0FB685B6A43F48022FB6874
:10164C005A62012318462437BD4680BC704780B4CB
:10165C0087B000AFF860B9607A603B60FB6893F8C4
:10166C002030FB75FB7D012B03D0FB7D022B40F062
:10167C000381BB68002B0ED1FB681B68DB6803F091
:10168C000303002B16D1FB685B6A43F40012FB6862
:10169C005A620123F7E0FB681B681B6903F0030324
:1016AC00002B07D1FB685B6A43F40012FB685A629B
:1016BC000123E8E0FB681A68BB681B331B01134469
:1016CC001B6803F004027B689A607B689B68002BA4
:1016DC000CD1FB681A68BB681B331B0113441B68D5
:1016EC005B0DC3F30A027B681A600BE0FB681A6897
:1016FC00BB681B331B0113441B68DB0823F06042DF
:10170C007B685A60FB681A68BB681B331B01134467
:10171C001B6803F002027B68DA60FB681A68BB681E
:10172C001B331B01134404331B6803F00803002B09
:10173C0003D07B6808221A610BE0FB681A68BB684F
:10174C001B331B01134404331B6803F00F027B682B
:10175C001A61FB681A68BB681B331B011344043302
:10176C001B681B0ADAB27B689A61FB681A68BB6853
:10177C001B331B01134404331B681B0C9AB27B688C
:10178C005A61FB681A68BB681B01134403F5DC73D0
:10179C001B68DAB23B681A70FB681A68BB681B01DD
:1017AC00134403F5DC731B681A0A3B680133D2B28D
:1017BC001A70FB681A68BB681B01134403F5DC73D1
:1017CC001B681A0C3B680233D2B21A70FB681A6899
:1017DC00BB681B01134403F5DC731B681A0E3B68D2
:1017EC000333D2B21A70FB681A68BB681B0113442E
:1017FC0003F5DE731A683B680433D2B21A70FB68C7
:10180C001A68BB681B01134403F5DE731B681A0AC4
:10181C003B680533D2B21A70FB681A68BB681B01AF
:10182C00134403F5DE731B681A0C3B680633D2B203
:10183C001A70FB681A68BB681B01134403F5DE734E
:10184C001B681A0E3B680733D2B21A70BB68002BA8
:10185C0008D1FB681B68DA68FB681B6842F0200241
:10186C00DA6007E0FB681B681A69FB681B6842F0CA
:10187C0020021A61002306E0FB685B6A43F48022B5
:10188C00FB685A62012318461C37BD4680BC704762
:10189C0080B485B000AF786039607B6893F82030F5
:1018AC00FB73FB7B012B02D0FB7B022B09D17B68EA
:1018BC001B6859697B681B683A680A435A610023A4
:1018CC0006E07B685B6A43F480227B685A620123E2
:1018DC0018461437BD4680BC704780B58AB000AF3F
:1018EC00786000237B627B681B685B693B627B686A
:1018FC001B685B68FB617B681B689B68BB617B68D2
:10190C001B68DB687B617B681B681B693B617B68C0
:10191C001B689B69FB603B6A03F00103002B7CD0C6
:10192C00BB6903F00103002B23D07B681B680122E9
:10193C009A60BB6903F00203002B03D0786800F0B7
:10194C0083F916E0BB6903F00403002B04D07B6A17
:10195C0043F400637B620CE0BB6903F00803002BCB
:10196C0004D07B6A43F480537B6202E0786800F019
:10197C0086F9BB6903F48073002B24D07B681B6849
:10198C004FF480729A60BB6903F40073002B03D090
:10199C00786800F062F916E0BB6903F48063002BF1
:1019AC0004D07B6A43F400537B620CE0BB6903F404
:1019BC000063002B04D07B6A43F480437B6202E01B
:1019CC00786800F065F9BB6903F48033002B24D0F0
:1019DC007B681B684FF480329A60BB6903F4003358
:1019EC00002B03D0786800F041F916E0BB6903F4D2
:1019FC008023002B04D07B6A43F400437B620CE011
:101A0C00BB6903F40023002B04D07B6A43F48033BE
:101A1C007B6202E0786800F044F93B6A03F008034B
:101A2C00002B0CD07B6903F01003002B07D07B6AD2
:101A3C0043F400737B627B681B681022DA603B6A9C
:101A4C0003F00403002B0BD07B6903F00803002B7D
:101A5C0006D07B681B680822DA60786800F02AF9E7
:101A6C003B6A03F00203002B09D07B681B68DB6820
:101A7C0003F00303002B02D07868FEF70FFC3B6ADF
:101A8C0003F04003002B0CD03B6903F01003002B38
:101A9C0007D07B6A43F480637B627B681B681022EF
:101AAC001A613B6A03F02003002B0BD03B6903F057
:101ABC000803002B06D07B681B6808221A61786823
:101ACC0000F00AF93B6A03F01003002B09D07B6885
:101ADC001B681B6903F00303002B02D0786800F02D
:101AEC00F2F83B6A03F40033002B0BD0FB6903F0D4
:101AFC001003002B06D07B681B6810225A60786894
:101B0C0000F0F3F83B6A03F48033002B0BD0FB6935
:101B1C0003F00803002B06D07B681B6808225A6070
:101B2C00786800F0EBF83B6A03F40043002B7BD0A1
:101B3C00FB6903F00403002B72D03B6A03F480733F
:101B4C00002B08D0FB6803F00103002B03D07B6A49
:101B5C0043F001037B623B6A03F40073002B08D053
:101B6C00FB6803F00203002B03D07B6A43F00203F3
:101B7C007B623B6A03F48063002B08D0FB6803F0A4
:101B8C000403002B03D07B6A43F004037B623B6AA3
:101B9C0003F40063002B43D0FB6803F07003002BAD
:101BAC003ED0FB6803F07003602B2BD0602B2ED83B
:101BBC00502B22D0502B2AD8402B19D0402B26D872
:101BCC00302B10D0302B22D8102B02D0202B05D04C
:101BDC001DE07B6A43F008037B6219E07B6A43F0EB
:101BEC0010037B6214E07B6A43F020037B620FE0FE
:101BFC007B6A43F040037B620AE07B6A43F080031C
:101C0C007B6205E07B6A43F480737B6200E000BF7B
:101C1C007B681B689A697B681B6822F070029A616A
:101C2C007B681B6804225A607B6A002B08D07B6897
:101C3C005A6A7B6A1A437B685A62786800F067F8C4
:101C4C0000BF2837BD4680BD80B483B000AF78603C
:101C5C0000BF0C37BD4680BC704780B483B000AF6A
:101C6C00786000BF0C37BD4680BC704780B483B031
:101C7C0000AF786000BF0C37BD4680BC704780B4A5
:101C8C0083B000AF786000BF0C37BD4680BC704796
:101C9C0080B483B000AF786000BF0C37BD4680BC09
:101CAC00704780B483B000AF786000BF0C37BD467E
:101CBC0080BC704780B483B000AF786000BF0C3735
:101CCC00BD4680BC704780B483B000AF786000BF65
:101CDC000C37BD4680BC704780B483B000AF7860D1
:101CEC0000BF0C37BD4680BC704780B483B000AFDA
:101CFC00786000BF0C37BD4680BC704780B483B0A1
:101D0C0000AF786000BF0C37BD4680BC704780B414
:101D1C0083B000AF786000BF0C37BD4680BC704705
:101D2C0080B485B000AF78607B6803F00703FB607C
:101D3C000C4BDB68BB60BA684FF6FF031340BB600B
:101D4C00FB681A02BB68134343F0BF6343F40033D0
:101D5C00BB60044ABB68D36000BF1437BD4680BC6F
:101D6C00704700BF00ED00E080B400AF044BDB68AF
:101D7C001B0A03F007031846BD4680BC704700BF22
:101D8C0000ED00E080B483B000AF0346FB7197F91F
:101D9C000730002B0BDBFB7903F01F02064997F988
:101DAC0007305B09012000FA02F241F8232000BF42
:101DBC000C37BD4680BC704700E100E080B483B0B6
:101DCC0000AF03463960FB7197F90730002B0ADB33
:101DDC003B68DAB20C4997F907301201D2B20B44C6
:101DEC0083F800230AE03B68DAB20849FB7903F078
:101DFC000F03043B1201D2B20B441A7600BF0C370E
:101E0C00BD4680BC704700BF00E100E000ED00E083
:101E1C0080B489B000AFF860B9607A60FB6803F0F9
:101E2C000703FB61FB69C3F10703042B28BF0423E1
:101E3C00BB61FB690433062B02D9FB69033B00E051
:101E4C0000237B614FF0FF32BB6902FA03F3DA43E4
:101E5C00BB681A407B699A404FF0FF317B6901FAED
:101E6C0003F3D9437B680B40134318462437BD4614
:101E7C0080BC704780B582B000AF78607B68013B56
:101E8C00B3F1807F01D301230FE00A4A7B68013B49
:101E9C0053600F214FF0FF30FFF790FF054B0022EE
:101EAC009A60044B07221A60002318460837BD4677
:101EBC0080BD00BF10E000E080B582B000AF78605C
:101ECC007868FFF72DFF00BF0837BD4680BD80B591
:101EDC0086B000AF0346B9607A60FB7300237B6168
:101EEC00FFF742FF78617A68B9687869FFF790FF6D
:101EFC00024697F90F3011461846FFF75FFF00BFF7
:101F0C001837BD4680BD80B582B000AF0346FB716B
:101F1C0097F907301846FFF735FF00BF0837BD4665
:101F2C0080BD80B582B000AF78607868FFF7A2FF03
:101F3C00034618460837BD4680BD000080B48BB000
:101F4C0000AF7860396000237B6200233B6269E15B
:101F5C0001227B6A02FA03F3FB613B681B68FA6996
:101F6C001340BB61BA69FB699A4240F058813B68E7
:101F7C005B689A4A93425ED0984A934275D8984AC5
:101F8C00934258D0964A93426FD8964A934252D075
:101F9C00944A934269D8944A93424CD0924A9342C1
:101FAC0063D8924A934246D0904A93425DD8122B02
:101FBC002AD8122B59D801A252F823F0432000083A
:101FCC001D2000082F200008712000087720000831
:101FDC007720000877200008772000087720000879
:101FEC007720000877200008772000087720000869
:101FFC007720000877200008772000087720000859
:10200C002520000839200008794A934213D02CE08F
:10201C003B68DB683B6229E03B68DB6804333B626E
:10202C0024E03B68DB6808333B621FE03B68DB68FD
:10203C000C333B621AE03B689B68002B02D10423F3
:10204C003B6213E03B689B68012B05D108233B6284
:10205C007B68FA691A6109E008233B627B68FA69BC
:10206C005A6103E000233B6200E000BFBB69FF2B19
:10207C0001D87B6801E07B6804337B61BB69FF2B73
:10208C0002D87B6A9B0002E07B6A083B9B003B61A9
:10209C007B691A680F213B6901FA03F3DB431A4091
:1020AC00396A3B6901FA03F31A437B691A603B688E
:1020BC005B6803F08053002B00F0B1804D4B9B69A3
:1020CC004C4A43F0010393614A4B9B6903F00103B3
:1020DC00BB60BB68484A7B6A9B08023352F82330CA
:1020EC00FB607B6A03F003039B000F2202FA03F3ED
:1020FC00DB43FA681340FB607B68404A934213D081
:10210C007B683F4A93420DD07B683E4A934207D08E
:10211C007B683D4A934201D1032306E0042304E08B
:10212C00022302E0012300E000237A6A02F003029A
:10213C0092009340FA681343FB602F497B6A9B081B
:10214C000233FA6841F823203B685B6803F4801380
:10215C00002B06D02D4B9A682C49BB6913438B601E
:10216C0006E02A4B9A68BB69DB43284913408B6015
:10217C003B685B6803F40013002B06D0234BDA6832
:10218C002249BB691343CB6006E0204BDA68BB697C
:10219C00DB431E491340CB603B685B6803F40033A0
:1021AC00002B06D0194B5A681849BB6913434B6076
:1021BC0006E0164B5A68BB69DB43144913404B606D
:1021CC003B685B6803F48033002B21D00F4B1A68FB
:1021DC000E49BB6913430B6021E000BF00003210B5
:1021EC00000031100000221000002110000012101D
:1021FC0000001110001002400000014000080140D6
:10220C00000C01400010014000140140000401408A
:10221C000B4B1A68BB69DB43094913400B607B6AA3
:10222C0001337B623B681A687B6A22FA03F3002B4A
:10223C007FF48EAE00BF00BF2C37BD4680BC70470C
:10224C000004014080B483B000AF78600B467B8003
:10225C0013467B707B78002B03D07A887B681A61DD
:10226C0003E07B881A047B681A6100BF0C37BD46FB
:10227C0080BC704780B586B000AF78607B68002B5F
:10228C0001D1012372E27B681B6803F00103002B70
:10229C0000F08780924B5B6803F00C03042B0CD08E
:1022AC008F4B5B6803F00C03082B12D18C4B5B68D3
:1022BC0003F48033B3F5803F0BD1894B1B6803F4D7
:1022CC000033002B6CD07B685B68002B68D101233A
:1022DC004CE27B685B68B3F5803F06D1804B1B6892
:1022EC007F4A43F4803313602EE07B685B68002BDD
:1022FC000CD17B4B1B687A4A23F480331360784BE8
:10230C001B68774A23F4802313601DE07B685B68AD
:10231C00B3F5A02F0CD1724B1B68714A43F4802388
:10232C0013606F4B1B686E4A43F4803313600BE0F1
:10233C006B4B1B686A4A23F480331360684B1B6831
:10234C00674A23F4802313607B685B68002B13D0EF
:10235C00FEF79CFE386108E0FEF798FE02463B69EA
:10236C00D31A642B01D9032300E25D4B1B6803F4E1
:10237C000033002BF0D014E0FEF788FE386108E043
:10238C00FEF784FE02463B69D31A642B01D9032362
:10239C00ECE1534B1B6803F40033002BF0D100E04D
:1023AC0000BF7B681B6803F00203002B63D04C4B0F
:1023BC005B6803F00C03002B0BD0494B5B6803F0FC
:1023CC000C03082B1CD1464B5B6803F48033002BA9
:1023DC0016D1434B1B6803F00203002B05D07B681E
:1023EC001B69012B01D00123C0E13D4B1B6823F07D
:1023FC00F8027B685B69DB00394913430B603AE0F8
:10240C007B681B69002B20D0364B01221A60FEF72B
:10241C003DFE386108E0FEF739FE02463B69D31AEF
:10242C00022B01D90323A1E12D4B1B6803F00203FE
:10243C00002BF0D02A4B1B6823F0F8027B685B69F9
:10244C00DB00274913430B6015E0264B00221A6072
:10245C00FEF71CFE386108E0FEF718FE02463B69E9
:10246C00D31A022B01D9032380E11D4B1B6803F007
:10247C000203002BF0D17B681B6803F00803002BD0
:10248C003AD07B689B69002B19D0174B01221A603C
:10249C00FEF7FCFD386108E0FEF7F8FD02463B69EB
:1024AC00D31A022B01D9032360E10D4B5B6A03F0B5
:1024BC000203002BF0D0012000F09CFA1CE00A4B28
:1024CC0000221A60FEF7E2FD38610FE0FEF7DEFD38
:1024DC0002463B69D31A022B08D9032346E100BFFD
:1024EC00001002400000424280044242924B5B6A60
:1024FC0003F00203002BE9D17B681B6803F0040393
:10250C00002B00F0A6800023FB758B4BDB6903F0DE
:10251C008053002B0DD1884BDB69874A43F08053E5
:10252C00D361854BDB6903F08053BB60BB6801232F
:10253C00FB75824B1B6803F48073002B18D17F4B07
:10254C001B687E4A43F480731360FEF79FFD38616D
:10255C0008E0FEF79BFD02463B69D31A642B01D9B8
:10256C00032303E1754B1B6803F48073002BF0D03D
:10257C007B68DB68012B06D16F4B1B6A6E4A43F0FC
:10258C00010313622DE07B68DB68002B0CD16A4BD6
:10259C001B6A694A23F001031362674B1B6A664A84
:1025AC0023F0040313621CE07B68DB68052B0CD161
:1025BC00614B1B6A604A43F0040313625E4B1B6A57
:1025CC005D4A43F0010313620BE05B4B1B6A5A4AF2
:1025DC0023F001031362584B1B6A574A23F0040380
:1025EC0013627B68DB68002B15D0FEF74FFD38615A
:1025FC000AE0FEF74BFD02463B69D31A41F28832E2
:10260C00934201D90323B1E04B4B1B6A03F0020345
:10261C00002BEED014E0FEF739FD38610AE0FEF72E
:10262C0035FD02463B69D31A41F28832934201D9F7
:10263C0003239BE0404B1B6A03F00203002BEED1FB
:10264C00FB7D012B05D13C4BDB693B4A23F08053CE
:10265C00D3617B68DB69002B00F08780364B5B68AD
:10266C0003F00C03082B61D07B68DB69022B46D18D
:10267C00334B00221A60FEF709FD386108E0FEF7C3
:10268C0005FD02463B69D31A022B01D903236DE0E9
:10269C00294B1B6803F00073002BF0D17B681B6A7D
:1026AC00B3F5803F08D1244B5B6823F400327B6880
:1026BC009B68214913434B601F4B5B6823F47412D6
:1026CC007B68196A7B685B6A0B431B4913434B603D
:1026DC001B4B01221A60FEF7D9FC386108E0FEF7AB
:1026EC00D5FC02463B69D31A022B01D903233DE0EA
:1026FC00114B1B6803F00073002BF0D035E0104B2E
:10270C0000221A60FEF7C2FC386108E0FEF7BEFC3E
:10271C0002463B69D31A022B01D9032326E0064B50
:10272C001B6803F00073002BF0D11EE07B68DB69A3
:10273C00012B07D1012319E000100240007000406A
:10274C00600042420B4B5B68FB60FB6803F4803219
:10275C007B681B6A9A4206D1FB6803F470127B6893
:10276C005B6A9A4201D0012300E000231846183717
:10277C00BD4680BD0010024080B584B000AF7860CB
:10278C0039607B68002B01D10123D0E06A4B1B68B8
:10279C0003F007033A689A4210D9674B1B6823F081
:1027AC00070265493B6813430B60634B1B6803F0DE
:1027BC0007033A689A4201D00123B8E07B681B6892
:1027CC0003F00203002B20D07B681B6803F004038A
:1027DC00002B05D0594B5B68584A43F4E0635360B7
:1027EC007B681B6803F00803002B05D0534B5B6818
:1027FC00524A43F460535360504B5B6823F0F00231
:10280C007B689B684D4913434B607B681B6803F0E6
:10281C000103002B40D07B685B68012B07D1474B31
:10282C001B6803F40033002B15D101237FE07B6878
:10283C005B68022B07D1414B1B6803F00073002B24
:10284C0009D1012373E03D4B1B6803F00203002BFD
:10285C0001D101236BE0394B5B6823F003027B68E9
:10286C005B68364913434B60FEF710FCF8600AE0D6
:10287C00FEF70CFC0246FB68D31A41F288329342F5
:10288C0001D9032353E02D4B5B6803F00C027B68EA
:10289C005B689B009A42EBD1274B1B6803F0070344
:1028AC003A689A4210D2244B1B6823F00702224943
:1028BC003B6813430B60204B1B6803F007033A681B
:1028CC009A4201D0012332E07B681B6803F00403B9
:1028DC00002B08D0194B5B6823F4E0627B68DB6843
:1028EC00164913434B607B681B6803F00803002BED
:1028FC0009D0124B5B6823F460527B681B69DB00C8
:10290C000E4913434B6000F021F802460B4B5B68F9
:10291C001B0903F00F030A49CB5C22FA03F3094AA3
:10292C001360094B1B681846FEF76EFB0023184614
:10293C001037BD4680BD00BF002002400010024091
:10294C00842F0008000000200400002080B487B011
:10295C0000AF0023FB600023BB6000237B610023DE
:10296C007B6000233B611E4B5B68FB60FB6803F0E4
:10297C000C03042B02D0082B03D027E0194B3B612E
:10298C0027E0FB689B0C03F00F03174AD35C7B60BA
:10299C00FB6803F48033002B10D0114B5B685B0C8D
:1029AC0003F00103114AD35CBB607B680D4A03FB47
:1029BC0002F2BB68B2FBF3F37B6104E07B680C4A68
:1029CC0002FB03F37B617B693B6102E0054B3B61DE
:1029DC0000BF3B6918461C37BD4680BC704700BF22
:1029EC000010024000127A00942F0008A42F000857
:1029FC0000093D0080B485B000AF78600A4B1B68BD
:102A0C000A4AA2FB03235B0A7A6802FB03F3FB600E
:102A1C0000BFFB685A1EFA60002BF9D100BF00BF43
:102A2C001437BD4680BC704700000020D34D6210A7
:102A3C0080B582B000AF78607B68002B01D1012398
:102A4C0041E07B6893F83D30DBB2002B06D17B680C
:102A5C00002283F83C207868FEF746FA7B68022255
:102A6C0083F83D207B681A687B680433194610464E
:102A7C0000F0F4F87B68012283F846207B68012281
:102A8C0083F83E207B68012283F83F207B6801227B
:102A9C0083F840207B68012283F841207B68012267
:102AAC0083F842207B68012283F843207B68012253
:102ABC0083F844207B68012283F845207B6801223F
:102ACC0083F83D20002318460837BD4680BD80B5ED
:102ADC0084B000AF786039600023FB737B6893F897
:102AEC003C30012B01D10223B4E07B68012283F836
:102AFC003C207B68022283F83D207B681B689B6826
:102B0C00BB60BB6823F07703BB60BB6823F47F43D7
:102B1C00BB607B681B68BA689A603B681B68B3F53E
:102B2C00005F3ED0B3F5005F00F28780B3F5805FA5
:102B3C0000F08680B3F5805F7FD8702B1AD0702B95
:102B4C007BD8602B50D0602B77D8502B3CD0502B9F
:102B5C0073D8402B58D0402B6FD8302B64D0302BEF
:102B6C006BD8202B60D0202B67D8002B5CD0102B7F
:102B7C005AD062E07B6818683B6899683B685A6871
:102B8C003B68DB6800F043F97B681B689B68BB60A3
:102B9C00BB6843F07703BB607B681B68BA689A60BC
:102BAC004FE07B6818683B6899683B685A683B68DB
:102BBC00DB6800F02CF97B681B689A687B681B68E3
:102BCC0042F480429A603CE07B6818683B68596824
:102BDC003B68DB681A4600F0A3F87B681B68502141
:102BEC00184600F0FAF82CE07B6818683B685968C6
:102BFC003B68DB681A4600F0C1F87B681B686021F3
:102C0C00184600F0EAF81CE07B6818683B685968C5
:102C1C003B68DB681A4600F083F87B681B68402130
:102C2C00184600F0DAF80CE07B681A683B681B6801
:102C3C001946104600F0D1F803E00123FB7300E0C5
:102C4C0000BF7B68012283F83D207B68002283F85B
:102C5C003C20FB7B18461037BD4680BD80B485B048
:102C6C0000AF786039607B681B68FB607B68294A21
:102C7C0093420BD07B68B3F1804F07D07B68264A18
:102C8C00934203D07B68254A934208D1FB6823F01A
:102C9C007003FB603B685B68FA681343FB607B68FE
:102CAC001C4A93420BD07B68B3F1804F07D07B68F2
:102CBC00194A934203D07B68184A934208D1FB68A7
:102CCC0023F44073FB603B68DB68FA681343FB60DA
:102CDC00FB6823F080023B685B691343FB607B68F5
:102CEC00FA681A603B689A687B68DA623B681A6813
:102CFC007B689A627B68074A934203D13B681A69E6
:102D0C007B681A637B6801225A6100BF1437BD4689
:102D1C0080BC7047002C01400004004000080040BB
:102D2C0080B487B000AFF860B9607A60FB681B6A4A
:102D3C007B61FB681B6A23F00102FB681A62FB686B
:102D4C009B693B613B6923F0F0033B617B681B0192
:102D5C003A6913433B617B6923F00A037B617A690F
:102D6C00BB6813437B61FB683A699A61FB687A69BB
:102D7C001A6200BF1C37BD4680BC704780B487B058
:102D8C0000AFF860B9607A60FB681B6A7B61FB6816
:102D9C001B6A23F01002FB681A62FB689B693B619B
:102DAC003B6923F470433B617B681B033A69134313
:102DBC003B617B6923F0A0037B61BB681B017A69D3
:102DCC0013437B61FB683A699A61FB687A691A6202
:102DDC0000BF1C37BD4680BC704780B485B000AFC7
:102DEC00786039607B689B68FB60FB6823F070033C
:102DFC00FB603A68FB68134343F00703FB607B6896
:102E0C00FA689A6000BF1437BD4680BC704780B426
:102E1C0087B000AFF860B9607A603B60FB689B6874
:102E2C007B617B6923F47F437B613B681A027B687F
:102E3C001A43BB6813437A6913437B61FB687A6955
:102E4C009A6000BF1C37BD4680BC704780B485B00B
:102E5C0000AF786039607B6893F83C30012B01D16E
:102E6C00022346E07B68012283F83C207B68022227
:102E7C0083F83D207B681B685B68FB607B681B6884
:102E8C009B68BB60FB6823F07003FB603B681B68AE
:102E9C00FA681343FB607B681B68FA685A607B68AE
:102EAC001B68164A93420ED07B681B68B3F1804FA7
:102EBC0009D07B681B68124A934204D07B681B685C
:102ECC00104A93420CD1BB6823F08003BB603B6873
:102EDC005B68BA681343BB607B681B68BA689A600E
:102EEC007B68012283F83D207B68002283F83C201C
:102EFC00002318461437BD4680BC7047002C014097
:102F0C00000400400008004003460244934200D1F4
:102F1C00704703F8011BF9E770B500260C4D0D4CFA
:102F2C00641BA410A64209D100F01AF800260A4D21
:102F3C000A4C641BA410A64205D170BD55F8043B85
:102F4C0098470136EEE755F8043B98470136F2E70F
:102F5C00A82F0008A82F0008A82F0008AC2F0008E5
:102F6C00F8B500BFF8BC08BC9E467047F8B500BF6A
:082F7C00F8BC08BC9E4670473A
:102F84000000000000000000010203040607080915
:102F940002030405060708090A0B0C0D0E0F101096
:042FA4000102000026
:042FA80031010008EB
:042FAC000D0100080B
:0C2FB0000024F4001000000001000000EC
:0400000508000F9D43
:00000001FF
