:020000040800F2
:1000000000500020AD18000801180008071800086B
:100010000D18000813180008191800080000000047
:100020000000000000000000000000001F18000891
:100030002B180008000000003718000843180008BB
:10004000F5180008F5180008F5180008F51800085C
:10005000F5180008F5180008F5180008F51800084C
:10006000F5180008F5180008F5180008F51800083C
:10007000F5180008F5180008F5180008F51800082C
:10008000F5180008F5180008F5180008F51800081C
:1000900051180008F5180008F5180008F5180008B0
:1000A000F5180008F5180008F5180008F5180008FC
:1000B0006518000879180008F5180008F5180008F8
:1000C000F5180008F5180008F5180008F5180008DC
:1000D000F5180008F51800088D180008F518000834
:1000E000F5180008F5180008F518000800000000D1
:1000F0000000000000000000000000000000000000
:0C01000000000000000000005FF808F1A3
:10010C0010B5054C237833B9044B13B10448AFF345
:10011C0000800123237010BD0C00002000000000A3
:10012C000C4C000808B5034B1BB103490348AFF353
:10013C00008008BD00000000100000200C4C0008DE
:10014C0080B58CB000AF78600B46FB70FB78002B51
:10015C0039D10123BB620A23FB610023BB612F4B06
:10016C001A682F4B1B685A402E4B1B6853401B0EB2
:10017C005B01BB600023FB60284B1A68284B1B6893
:10018C005A40284B1B6853401B0E5B013B610023FC
:10019C007B6100233B6201237B620023FB6207F13E
:1001AC0008031946786801F0FEFC0346002B01D0C9
:1001BC0001232FE0786801F0BFFD0221786801F07F
:1001CC00EFFF002326E00123BB620A23FB6100231F
:1001DC00BB610023BB600023FB6000233B61002359
:1001EC007B6100233B6201237B620023FB6207F1EE
:1001FC0008031946786801F0D6FC0346002B01D0A1
:10020C00012307E0786801F097FD0221786801F07E
:10021C00C7FF002318463037BD4680BDE8F7FF1FE7
:10022C00ECF7FF1FF0F7FF1F80B584B000AFF8604C
:10023C007B600B46FB721346BB720E4B00229A601E
:10024C00FB7A0C4A13600B4B0022DA60BB7A094A2A
:10025C001361BB697A680749F86801F0B1FD034680
:10026C00002B01D0012300E0002318461037BD46B7
:10027C0080BD00BF2800002080B483B000AF786040
:10028C007B68002B02D0044A7B68136000BF0C37DC
:10029C00BD4680BC704700BF7000002080B582B0A6
:1002AC0000AF7860064B074A0021786801F057FED2
:1002BC00054B1B68984700BF0837BD4680BD00BF83
:1002CC005C000020400000207000002080B483B04F
:1002DC0000AF78607B6800221A7000BF0C37BD46F7
:1002EC0080BC704780B584B000AF78600B46FB7063
:1002FC001346BB707B681B780F2B28D87B681B7848
:10030C007A685B001344FA785A707B681B787A68B9
:10031C005B001344BA789A707B681B78013BDA0F48
:10032C0013445B10FB6008E0FB68DBB2194678688D
:10033C0000F043F8FB68013BFB60FB68002BF3DA31
:10034C007B681B780133DAB27B681A7000E000BF5F
:10035C001037BD4680BD80B582B000AF78607B6839
:10036C001B78002B01D1002318E07B681B78013B24
:10037C00DBB21A460021786800F068F87B681B78BD
:10038C00013BDAB27B681A700021786800F015F82E
:10039C007B681B787A685B0013445B7818460837D7
:1003AC00BD4680BD80B483B000AF78607B685B785D
:1003BC0018460C37BD4680BC704780B584B000AF82
:1003CC0078600B46FB70FB78FB73FB785B00DBB251
:1003DC000133BB73BB7B01337B737B681B78BA7BAC
:1003EC009A420DD2BB7B7A685B0013449A78FB78F7
:1003FC0079685B000B449B789A4201D2BB7BFB7300
:10040C007B681B787A7B9A420DD27B7B7A685B0087
:10041C0013449A78FB7879685B000B449B789A427A
:10042C0001D27B7BFB73FA7BFB789A420AD0FA7879
:10043C00FB7B1946786800F009F8FB7B1946786855
:10044C00FFF7BBFF00BF1037BD4680BD80B485B041
:10045C0000AF78600B46FB701346BB70FB787A6874
:10046C005B00134407F10C0201331B881380BB782B
:10047C00FA78796852000A4479685B000B440132BF
:10048C0001331B881380BB787A685B0013440133FB
:10049C0007F10C0212881A8000BF1437BD4680BCCD
:1004AC00704780B584B000AF78607B68002283F819
:1004BC00EB217B68002283F8ED217B68002283F816
:1004CC00F1217B68002283F8EE217B68002283F8FF
:1004DC00EF217B68002283F8F0217B68012283F8EE
:1004EC00F2217B68012283F8EC217B68002283F8DF
:1004FC00FE217B680022A3F8FC217B682022A3F854
:10050C00F4217B684022A3F8F6217B688022A3F8B3
:10051C00F8217B684FF48072A3F8FA217B6803F50D
:10052C00E5731846FFF7D2FE7B6803F2A913184651
:10053C00FFF7CCFE7B6803F5CC73184600F0D0F9BE
:10054C000023FB730BE0FA7B796813465B001344C2
:10055C005B000B44FF221A70FB7B0133FB73FB7BAC
:10056C00032BF0D900BF00BF1037BD4680BD80B54E
:10057C0082B000AF78600B46FB701346BB70BB7843
:10058C00032B54D87B6893F8ED310133DAB27B68D6
:10059C0083F8ED217B6893F8EE310133DAB27B6896
:1005AC0083F8EE21BA7897F90300796813465B005B
:1005BC0013445B000B4402461A70BA7879681346F0
:1005CC005B0013445B000B440233BA781A70BA78A0
:1005DC00796813465B0013445B000B440133002223
:1005EC001A70BA78796813465B0013445B000B44AD
:1005FC00033300221A707B68B3F9FC31013BBA78E3
:10060C007968F8335B000B449888796813465B0073
:10061C0013445B000B44043302461A807B6803F5D9
:10062C00CC73BA781146184600F066F900E000BFAA
:10063C000837BD4680BD80B584B000AFF8603B1D67
:10064C0083E80600FB6893F8F1313F2B30D8FB6848
:10065C0093F8F1311946FA680B465B000B445B00CA
:10066C00134418331A463B1D186810609B889380FE
:10067C00FB6893F8F1311946FA680B465B000B44A2
:10068C005B0013441A3300221A70FB6803F5E57003
:10069C00FB6893F8F1317A791946FFF723FEFB6872
:1006AC0093F8F1310133DAB2FB6883F8F12100E001
:1006BC0000BF1037BD4680BD80B586B000AFF86076
:1006CC00381D80E80600FB70FB6893F8EE31002BB8
:1006DC0079D000237B6102E07B6901337B61BB79BC
:1006EC001A467B699342F7DBFA78F96813465B008C
:1006FC0013445B000B44013301221A70FA783879E9
:10070C00F96813465B0013445B000B440333024649
:10071C001A70FB6803F2A9137A79F9781846FFF777
:10072C00E1FDFB6893F8EF310133DAB2FB6883F833
:10073C00EF21FB6893F8EE31013BDAB2FB6883F8EA
:10074C00EE21FB6893F80032013BDAB2FB6883F8C8
:10075C000022FB6893F80032002B35D1FB68002295
:10076C0083F8FE21FB6893F8F131013BDAB2FB68A8
:10077C0083F8F121FB6803F5E5731846FFF7EBFDF1
:10078C00FB6893F8EE31002B1ED0FB6893F8F13127
:10079C00002B19D0FB6803F5E5731846FFF702FE32
:1007AC0003461846FA68F96803465B0003445B008D
:1007BC000B4403F1180102F5FF730A461168196026
:1007CC0092889A8000E000BF1837BD4680BD80B586
:1007DC0082B000AF78607B6803F2A9131846FFF76C
:1007EC00BAFD03461A467B6883F8EB217B6893F8C5
:1007FC00EF31013BDAB27B6883F8EF217B6893F829
:10080C00EB3119467A680B465B000B445B001344D2
:10081C00013302221A707B68002283F8EC2100BF9E
:10082C000837BD4680BD80B582B000AF78600B46FE
:10083C00FB70FA78796813465B0013445B000B4439
:10084C00013300221A70FA78796813465B0013445E
:10085C005B000B44033300221A707B6803F5CC73E6
:10086C00FA781146184600F047F800BF0837BD4625
:10087C0080BD80B485B000AF786039600023FB7315
:10088C0024E0FA7B796813465B0013445B000B444D
:10089C0093F900301A463B68934214D1FA7B79687D
:1008AC0013465B0013445B000B44013300221A70A7
:1008BC00FA7B796813465B0013445B000B440333EB
:1008CC0000221A7008E0FB7B0133FB737B6893F802
:1008DC00ED31FA7B9A42D4D31437BD4680BC7047B5
:1008EC0080B483B000AF78607B6800221A7000BFC0
:1008FC000C37BD4680BC704780B483B000AF7860C5
:10090C000B46FB707B681B780F2B0DD87B681B7814
:10091C001A467B681344FA785A707B681B7801334B
:10092C00DAB27B681A7000E000BF0C37BD4680BCA1
:10093C00704780B483B000AF78607B681B78002B65
:10094C0001D100230BE07B681B78013BDAB27B689A
:10095C001A707B681B781A467B6813445B781846C0
:10096C000C37BD4680BC704780B483B000AF786054
:10097C007B681B78013B7A6813445B7818460C370C
:10098C00BD4680BC7047000080B582B000AF00232C
:10099C00FB710DE0FB790A4AF8335B0013449B882A
:1009AC0000221946074802F087F9FB790133FB71E5
:1009BC00FB79032BEED900BF00BF0837BD4680BDC5
:1009CC0074010020000C014080B500AF0C4BB3F952
:1009DC00FC310B4AF8335B0013449B880122194607
:1009EC00084802F069F9064BB3F9FC319BB20133AC
:1009FC009BB21AB2024BA3F8FC2100BF80BD00BF12
:100A0C0074010020000C014080B582B000AF1F487B
:100A1C0002F036FEFFF7B8FF1D4B1B68DBB21D4A18
:100A2C0092F8ED2119461B48FFF7A1FD194B93F8DD
:100A3C00ED31042B04D0174BB3F9FC31042B1CD132
:100A4C0001224FF40051144802F036F9114B4FF6C5
:100A5C00FF72A3F8FC21114802F0C0FD41233B7149
:100A6C00391D0A2301220E4803F0E4F901224FF448
:100A7C000051094802F020F904E0FFF7A5FF0348F4
:100A8C0002F0ACFD0837BD4680BD00BF9C000020C5
:100A9C00400000207401002000100140E400002000
:100AAC002C01002080B586B002AF3448FFF77AFCE9
:100ABC0003461846324A324903465B0003445B0046
:100ACC000B4403F1180102F5FF730A461168196013
:100ADC0092889A802948FFF765FC0346FB732948E6
:100AEC00FFF742FF0346BB73254B93F8EE21244BD3
:100AFC0093F800329A4204D2214B022283F8F2215D
:100B0C0039E030233B71FA7B1D4913465B001344DB
:100B1C005B000B4418331B787B71FA7B1849134626
:100B2C005B0013445B000B441C331B881B0A9BB2F9
:100B3C00DBB2BB71FA7B124913465B0013445B00BA
:100B4C000B441C331B88DBB2FB71BA7B0C4913467C
:100B5C005B0013445B000B4493F90030D9B23B1D8E
:100B6C00094A009204220948FFF75EFB044B042259
:100B7C0083F8F22100BF1037BD4680BD3E03002034
:100B8C00740100200C03002064000020740000207D
:100B9C0080B584B002AF0E48FFF719FE40233B70BE
:100BAC000B4B93F8EB311946094A0B465B000B448F
:100BBC005B00134493F90030D9B23B46054A0092CE
:100BCC0001220548FFF730FB00BF0837BD4680BD4A
:100BDC0074010020640000207400002080B582B0F5
:100BEC0000AF1E48FFF7DEFB0346FB711C48FFF706
:100BFC00A0FE0346BB71FA79B9791A4813465B001B
:100C0C0013445B00034418331A6810469B88002277
:100C1C0063F30F020B4601461248FFF74DFD114BD3
:100C2C0093F8EC31002B01D0FFF7B2FF0D4B93F88A
:100C3C00EE31002B09D00B4B93F8F131002B04D083
:100C4C00084B032283F8F22103E0064B022283F8BF
:100C5C00F22100BF0837BD4680BD00BF3E03002017
:100C6C000C0300207401002080B500AF0C4B012256
:100C7C0083F8EC210A4B93F8EB311946084A0B46E2
:100C8C005B000B445B001344013303221A70044BCA
:100C9C0093F8EF31002B01D0FFF77AFF00BF80BD36
:100CAC007401002080B582B000AF0023FB7144E0DA
:100CBC00FA79264913465B0013445B000B4493F905
:100CCC000030B3F1FF3F34D043233B70FA791F4916
:100CDC0013465B0013445B000B4402331B787B70A0
:100CEC00FA791A4913465B0013445B000B44013339
:100CFC001B78BB70FA79154913465B0013445B00F3
:100D0C000B4403331B78FB70FB79032B08D0452372
:100D1C003B7139460A2305220D4803F08BF809E094
:100D2C0047233B7139460A230522094803F082F810
:100D3C0000E000BFFB790133FB71FB79032BB7D9C2
:100D4C0000BF00BF0837BD4680BD00BF7401002046
:100D5C002C01002080B584B000AF4123FB7300232D
:100D6C00BB7336E050233B71FB7B7B71BB7B013348
:100D7C00DBB2BB710023FB7100233B7200237B723F
:100D8C000023BB720023FB7200233B73FB7B0133FC
:100D9C00FB73BB7B002B02D0BB7B012B02D1452309
:100DAC007B7301E047237B73391D0A230A220D480C
:100DBC0003F040F80A2308220B490A4803F0BDF857
:100DCC00094B1B78512B00D0F4E700BFBB7B0133E0
:100DDC00BB73BB7B022BC5D900BF00BF1037BD4610
:100DEC0080BD00BF2C0100207803002080B586B0A8
:100DFC0002AF0346FB7150233B72FA790C49134640
:100E0C005B0013445B000B4493F90030D9B207F13B
:100E1C000803084A009201220748FFF705FAFB79FC
:100E2C0019460348FFF7FFFC00BF1037BD4680BDD5
:100E3C0074010020640000207400002090B589B07B
:100E4C0002AF0446084611461A462346FB71034678
:100E5C00BB710B467B7113463B71FB79042B1FD086
:100E6C0030233B72BB797B727B79BB723B79FB7213
:100E7C00FB795A1E194913465B0013445B000B4463
:100E8C0093F90030D9B207F10803154A00920422F5
:100E9C001448FFF7C9F9114B042283F8F2211AE028
:100EAC00BB793B740023FB827B791B021AB23B7922
:100EBC001BB213431BB2FB82FB8ABB8297F82C300C
:100ECC00BB7497F828307B7407F1100393E8060085
:100EDC000248FFF7B0FB1C37BD4690BD74010020E3
:100EEC00640000207400002080B584B000AF03467D
:100EFC00FB7147233B73FB797B734723BB7307F170
:100F0C000C010A230322034802F094FF00BF1037A0
:100F1C00BD4680BD2C01002080B582B000AF00F032
:100F2C00E5FC00F057F800F097F900F099F800F0A4
:100F3C00CDF800F019F900F065F901211E48FFF712
:100F4C00FFF81E48FFF798F91D48FFF7AAFA00238F
:100F5C003B704FF4C853BB800123BB7001237B70E3
:100F6C003B4693E806001648FFF765FB3B4693E8C3
:100F7C0006001348FFF75FFB3B4693E8060010485A
:100F8C00FFF759FB3B4693E806000D48FFF753FB70
:100F9C00FFF7FAFCFFF718FD0A4802F01FFB0822C6
:100FAC0009490A4803F05BF801224FF40051084844
:100FBC0001F082FEFEE700BF7400002095130008CC
:100FCC00740100209C000020780300202C010020DC
:100FDC000010014080B590B000AF07F11803282233
:100FEC000021184603F0E0FD3B1D00221A605A60F8
:100FFC009A60DA601A610123BB614FF48033FB61A4
:10100C0000233B620123BB6202237B634FF48033DA
:10101C00BB634FF4E013FB6307F11803184601F0B0
:10102C007DFE0346002B01D000F0C6FA0F237B6037
:10103C000223BB600023FB604FF480633B61002301
:10104C007B613B1D0221184602F0EAF80346002B97
:10105C0001D000F0B1FA00BF4037BD4680BD0000A2
:10106C0080B500AF174B184A1A60164B12225A6003
:10107C00144B00229A60134B0022DA60114B4FF490
:10108C0080321A610F4B00225A610E4B00221A76E5
:10109C000C4B00225A760B4B00229A76094B0022FD
:1010AC00DA76084B00221A77064B00225A7705484D
:1010BC0000F07EFC0346002B01D000F07DFA00BF4F
:1010CC0080BD00BF740000200064004080B586B075
:1010DC0000AF07F1080300221A605A609A60DA60C8
:1010EC003B4600221A605A601E4B4FF080421A6039
:1010FC001C4B41F61F425A601A4B00229A60194B46
:10110C004FF4FA62DA60174B00221A61154B8022F9
:10111C009A61144802F012FA0346002B01D000F039
:10112C004BFA4FF48053BB6007F1080319460D4886
:10113C0002F0DCFB0346002B01D000F03DFA00234B
:10114C003B6000237B603B461946064802F0B2FD2B
:10115C000346002B01D000F02FFA00BF1837BD4614
:10116C0080BD00BF9C00002080B586B000AF07F1A9
:10117C00080300221A605A609A60DA603B4600222B
:10118C001A605A601D4B1E4A1A601C4B41F61F42D6
:10119C005A601A4B00229A60184B4FF4FA72DA60BC
:1011AC00164B00221A61154B80229A61134802F0EB
:1011BC00C5F90346002B01D000F0FEF94FF4805323
:1011CC00BB6007F1080319460C4802F08FFB03467D
:1011DC00002B01D000F0F0F900233B6000237B6072
:1011EC003B461946054802F065FD0346002B01D02D
:1011FC0000F0E2F900BF1837BD4680BDE4000020C6
:10120C000004004080B500AF114B124A1A60104B1D
:10121C004FF4E1325A600E4B00229A600C4B0022C4
:10122C00DA600B4B00221A61094B0C225A61084BF5
:10123C0000229A61064B0022DA61054802F0AAFDF1
:10124C000346002B01D000F0B7F900BF80BD00BFF2
:10125C002C0100200044004080B588B000AF07F19D
:10126C00100300221A605A609A60DA60424B9B6944
:10127C00414A43F0100393613F4B9B6903F0100309
:10128C00FB60FB683C4B9B693B4A43F0200393613A
:10129C00394B9B6903F02003BB60BB68364B9B69E1
:1012AC00354A43F004039361334B9B6903F0040309
:1012BC007B607B68304B9B692F4A43F0080393613A
:1012CC002D4B9B6903F008033B603B6800224FF4F5
:1012DC0000512A4801F0F0FC01222021284801F09D
:1012EC00EBFC00224FF49861254801F0E5FC00224C
:1012FC004FF4CC71234801F0DFFC4FF400533B61F9
:10130C0001237B610023BB610223FB6107F1100306
:10131C0019461A4801F04CFB20233B6101237B61E9
:10132C000123BB610223FB6107F11003194614482A
:10133C0001F03EFB4FF498633B6101237B6100237A
:10134C00BB610223FB6107F1100319460C4801F045
:10135C002FFB4FF4CC733B6101237B610023BB61FA
:10136C000223FB6107F110031946064801F020FB2C
:10137C0000BF2037BD4680BD001002400010014068
:10138C0000080140000C014080B500AF1F4B93F8E2
:10139C00F231012B02D1FFF737FB36E01C4B1B78E7
:1013AC00502B06D11B4B1B6819461848FFF761FAE6
:1013BC002BE0164B93F8F231032B02D1FFF772FBA3
:1013CC0023E0124B93F8F231042B06D1104B1B780F
:1013DC00022B02D1FFF702FC17E00D4B1B78032BFD
:1013EC0002D1FFF741FC10E0094B1B78042B0CD108
:1013FC00074B5B7819460548FFF715FA054B1B6838
:10140C00DBB21846FFF770FD00BF80BD74010020F1
:10141C005C00002040000020B0B586B002AF7860C0
:10142C002F4B1B78402B12D12E4B022283F8F2212A
:10143C0001224FF400512C4801F03EFCFFF78AFCCE
:10144C0000224FF40051284801F036FC45E0244BB3
:10145C001B78442B02D1FFF725FC3EE0204B1B7878
:10146C00462B12D11E4B58781D4B99781C4BDC78AF
:10147C001B4B1D791A4B5B79194A92790192009397
:10148C002B462246FFF7DAFC27E0154B1B78482B3E
:10149C0005D1134B5B781846FFF7A8FC1DE0104BE9
:1014AC001B78492B14D100233B730E4B93F8EC3172
:1014BC00002B06D00B4B93F8EF31002B01D10123FD
:1014CC003B7307F10C010A230122786802F0B2FC8D
:1014DC0008220349054802F0C2FD1037BD46B0BDD5
:1014EC007803002074010020001001402C01002022
:1014FC0080B586B000AF78607B681B68B3F1804F15
:10150C002ED1294B93F8F231012B44D1FFF73CFA41
:10151C00FFF75AFA244BB3F9FC31032B3DDD412381
:10152C003B7300237B730023BB730023FB730023EB
:10153C003B7400237B740023BB740023FB740023D7
:10154C003B7500237B7507F10C010A230A2217480F
:10155C0002F070FC4FF40051154801F0C5FB1CE083
:10156C007B681B68134A93421AD10F4B93F8F231E4
:10157C00022B14D10C4B93F8EE31002B0FD00A4BED
:10158C0093F8F131002B0AD0074B032283F8F22198
:10159C00FFF788FA04E000BF02E000BF00E000BFE4
:1015AC001837BD4680BD00BF740100202C010020FF
:1015BC00001001400004004080B400AF72B600BFC0
:1015CC00FEE7000080B485B000AF154B9B69144A50
:1015DC0043F001039361124B9B6903F00103BB6061
:1015EC00BB680F4BDB690E4A43F08053D3610C4B45
:1015FC00DB6903F080537B607B680A4B5B68FB60A4
:10160C00FB6823F0E063FB60FB6843F00073FB6056
:10161C00044AFB68536000BF1437BD4680BC70475A
:10162C00001002400000014080B588B000AF786027
:10163C0007F1100300221A605A609A60DA607B6826
:10164C001B68204A934239D11F4BDB691E4A43F079
:10165C000073D3611C4BDB6903F00073FB60FB6808
:10166C00194B9B69184A43F004039361164B9B6911
:10167C0003F00403BB60BB684FF400633B610023C1
:10168C007B610023BB6107F1100319460F4801F081
:10169C008FF94FF480533B6102237B610323FB6181
:1016AC0007F110031946094801F082F900220021C4
:1016BC00142001F094F8142001F0ADF800BF20378D
:1016CC00BD4680BD0064004000100240000801408F
:1016DC0080B584B000AF78607B681B68B3F1804F35
:1016EC0014D1194BDB69184A43F00103D361164B33
:1016FC00DB6903F00103FB60FB68002200211C2066
:10170C0001F06DF81C2001F086F818E07B681B686E
:10171C000E4A934213D10C4BDB690B4A43F0020384
:10172C00D361094BDB6903F00203BB60BB68002289
:10173C0000211D2001F053F81D2001F06CF800BFB2
:10174C001037BD4680BD00BF0010024000040040B1
:10175C0080B588B000AF786007F1100300221A60E2
:10176C005A609A60DA607B681B681F4A934237D1D3
:10177C001E4BDB691D4A43F40033D3611B4BDB6901
:10178C0003F40033FB60FB68184B9B69174A43F06A
:10179C0004039361154B9B6903F00403BB60BB68A6
:1017AC0004233B6102237B610323FB6107F11003DC
:1017BC0019460F4801F0FCF808233B6100237B61BC
:1017CC000023BB6107F110031946094801F0F0F83A
:1017DC0000220021262001F002F8262001F01BF83F
:1017EC0000BF2037BD4680BD0044004000100240C1
:1017FC000008014080B400AFFEE780B400AFFEE704
:10180C0080B400AFFEE780B400AFFEE780B400AF59
:10181C00FEE780B400AF00BFBD4680BC704780B40B
:10182C0000AF00BFBD4680BC704780B400AF00BFA6
:10183C00BD4680BC704780B500AF00F09DF800BF7E
:10184C0080BD000080B500AF024800F0CEFC00BFA8
:10185C0080BD00BF7400002080B500AF024801F0CD
:10186C003DFF00BF80BD00BF9C00002080B500AFD5
:10187C00024801F033FF00BF80BD00BFE400002030
:10188C0080B500AF024802F00FFC00BF80BD00BF66
:10189C002C01002080B400AF00BFBD4680BC704757
:1018AC00FFF7F8FF0B480C490C4A002302E0D45810
:1018BC00C4500433C4188C42F9D3094A094C002390
:1018CC0001E013600432A242FBD303F075F9FFF779
:1018DC0023FB7047000000200C000020584C00082F
:1018EC000C00002084030020FEE7000080B500AF50
:1018FC00084B1B68074A43F010031360032000F0E9
:10190C0063FF0F2000F008F8FFF75CFE0023184679
:10191C0080BD00BF0020024080B582B000AF78606F
:10192C00124B1A68124B1B7819464FF47A73B3FB9F
:10193C00F1F3B2FBF3F3184600F07BFF0346002BE8
:10194C0001D001230EE07B680F2B0AD800227968A6
:10195C004FF0FF3000F043FF064A7B681360002312
:10196C0000E0012318460837BD4680BD000000206A
:10197C00080000200400002080B400AF054B1B7849
:10198C001A46054B1B681344034A136000BFBD463F
:10199C0080BC7047080000208003002080B400AF9A
:1019AC00024B1B681846BD4680BC70478003002064
:1019BC0080B584B000AF78607B68002B01D1012327
:1019CC00EDE07B6893F82030DBB2002B02D1786815
:1019DC00FFF72AFE7B681B681A687B681B6842F05D
:1019EC0001021A60FFF7DAFFF86012E0FFF7D6FF8A
:1019FC000246FB68D31A0A2B0BD97B685B6A43F44B
:101A0C0000327B685A627B68052283F82020012310
:101A1C00C5E07B681B685B6803F00103002BE5D015
:101A2C007B681B681A687B681B6822F002021A60CC
:101A3C00FFF7B4FFF86012E0FFF7B0FF0246FB6857
:101A4C00D31A0A2B0BD97B685B6A43F400327B6890
:101A5C005A627B68052283F8202001239FE07B6873
:101A6C001B685B6803F00203002BE5D17B681B7ECF
:101A7C00012B08D17B681B681A687B681B6842F0D5
:101A8C0080021A6007E07B681B681A687B681B6819
:101A9C0022F080021A607B685B7E012B08D17B6888
:101AAC001B681A687B681B6842F040021A6007E0EA
:101ABC007B681B681A687B681B6822F040021A60FE
:101ACC007B689B7E012B08D17B681B681A687B683E
:101ADC001B6842F020021A6007E07B681B681A68DA
:101AEC007B681B6822F020021A607B68DB7E012B6E
:101AFC0008D17B681B681A687B681B6822F010028F
:101B0C001A6007E07B681B681A687B681B6842F0E8
:101B1C0010021A607B681B7F012B08D17B681B6845
:101B2C001A687B681B6842F008021A6007E07B6841
:101B3C001B681A687B681B6822F008021A607B68B5
:101B4C005B7F012B08D17B681B681A687B681B685C
:101B5C0042F004021A6007E07B681B681A687B6815
:101B6C001B6822F004021A607B689A687B68DB6849
:101B7C001A437B681B691A437B685B6942EA030161
:101B8C007B685B685A1E7B681B680A43DA617B685A
:101B9C0000225A627B68012283F820200023184619
:101BAC001037BD4680BD80B487B000AF7860396017
:101BBC007B681B687B617B6893F82030FB74FB7C33
:101BCC00012B03D0FB7C022B40F0AA807B69D3F85D
:101BDC00003243F001027B69C3F800223B685B6969
:101BEC0003F01F03012202FA03F3FB607B69D3F8B5
:101BFC001C22FB68DB431A407B69C3F81C223B6840
:101C0C00DB69002B23D17B69D3F80C22FB68DB4307
:101C1C001A407B69C3F80C223B68DB6819043B68EB
:101C2C005B689BB23A68526919437B69483243F846
:101C3C0032103B689B6819043B681B689AB23B687E
:101C4C005B690A4379694833DB000B445A603B6893
:101C5C00DB69012B22D17B69D3F80C22FB681A4378
:101C6C007B69C3F80C223B681B6819043B685B68F2
:101C7C009BB23A68526919437B69483243F8321077
:101C8C003B689B6819043B68DB689AB23B685B69EC
:101C9C000A4379694833DB000B445A603B689B6903
:101CAC00002B09D17B69D3F80422FB68DB431A4073
:101CBC007B69C3F8042207E07B69D3F80422FB6834
:101CCC001A437B69C3F804223B681B69002B09D1BA
:101CDC007B69D3F81422FB68DB431A407B69C3F899
:101CEC00142207E07B69D3F81422FB681A437B6942
:101CFC00C3F814223B681B6A012B07D17B69D3F80C
:101D0C001C22FB681A437B69C3F81C227B69D3F83D
:101D1C00003223F001027B69C3F80022002306E0A5
:101D2C007B685B6A43F480227B685A620123184605
:101D3C001C37BD4680BC704780B584B000AF78605E
:101D4C007B6893F82030DBB2012B2ED17B6802220A
:101D5C0083F820207B681B681A687B681B6822F05C
:101D6C0001021A60FFF71AFEF86012E0FFF716FE88
:101D7C000246FB68D31A0A2B0BD97B685B6A43F4C7
:101D8C0000327B685A627B68052283F8202001238D
:101D9C0012E07B681B685B6803F00103002BE5D144
:101DAC007B6800225A62002306E07B685B6A43F47E
:101DBC0000227B685A62012318461037BD4680BD4D
:101DCC0080B489B000AFF860B9607A603B60FB68A2
:101DDC0093F82030FB77FB681B689B68BB61FB7F2B
:101DEC00012B03D0FB7F022B40F0AD80BB6903F0CD
:101DFC008063002B0AD1BB6903F00063002B05D173
:101E0C00BB6903F08053002B00F09580BB691B0E5F
:101E1C0003F003037B6101227B699A403B681A60E3
:101E2C00BB689B68002B0DD1BB681B685A05BB684F
:101E3C00DB68F96809681A437B6918331B010B448A
:101E4C001A600FE0BB685B68DA00BB689B681A43DA
:101E5C00BB68DB68F96809681A437B6918331B0196
:101E6C000B441A60FB681968BB681A697B691833E4
:101E7C001B010B4404331A60BB681B7D012B11D171
:101E8C00FB681A687B6918331B01134404331B6805
:101E9C00FA68116843F480727B6918331B010B4498
:101EAC0004331A607B6807331B781A067B68063389
:101EBC001B781B041A437B6805331B781B021343E6
:101ECC007A68043212781046FA68116843EA000204
:101EDC007B691B010B4403F5C6731A607B680333E3
:101EEC001B781A067B6802331B781B041A437B6829
:101EFC0001331B781B0213437A6812781046FA6878
:101F0C00116843EA00027B691B010B4403F5C4739F
:101F1C001A60FB681A687B6918331B0113441B6831
:101F2C00FA68116843F001027B6918331B010B44FA
:101F3C001A6000230EE0FB685B6A43F40012FB6836
:101F4C005A62012306E0FB685B6A43F48022FB685B
:101F5C005A62012318462437BD4680BC704780B4B2
:101F6C0087B000AFF860B9607A603B60FB6893F8AB
:101F7C002030FB75FB7D012B03D0FB7D022B40F049
:101F8C000381BB68002B0ED1FB681B68DB6803F078
:101F9C000303002B16D1FB685B6A43F40012FB6849
:101FAC005A620123F7E0FB681B681B6903F003030B
:101FBC00002B07D1FB685B6A43F40012FB685A6282
:101FCC000123E8E0FB681A68BB681B331B01134450
:101FDC001B6803F004027B689A607B689B68002B8B
:101FEC000CD1FB681A68BB681B331B0113441B68BC
:101FFC005B0DC3F30A027B681A600BE0FB681A687E
:10200C00BB681B331B0113441B68DB0823F06042C5
:10201C007B685A60FB681A68BB681B331B0113444E
:10202C001B6803F002027B68DA60FB681A68BB6805
:10203C001B331B01134404331B6803F00803002BF0
:10204C0003D07B6808221A610BE0FB681A68BB6836
:10205C001B331B01134404331B6803F00F027B6812
:10206C001A61FB681A68BB681B331B0113440433E9
:10207C001B681B0ADAB27B689A61FB681A68BB683A
:10208C001B331B01134404331B681B0C9AB27B6873
:10209C005A61FB681A68BB681B01134403F5DC73B7
:1020AC001B68DAB23B681A70FB681A68BB681B01C4
:1020BC00134403F5DC731B681A0A3B680133D2B274
:1020CC001A70FB681A68BB681B01134403F5DC73B8
:1020DC001B681A0C3B680233D2B21A70FB681A6880
:1020EC00BB681B01134403F5DC731B681A0E3B68B9
:1020FC000333D2B21A70FB681A68BB681B01134415
:10210C0003F5DE731A683B680433D2B21A70FB68AD
:10211C001A68BB681B01134403F5DE731B681A0AAB
:10212C003B680533D2B21A70FB681A68BB681B0196
:10213C00134403F5DE731B681A0C3B680633D2B2EA
:10214C001A70FB681A68BB681B01134403F5DE7335
:10215C001B681A0E3B680733D2B21A70BB68002B8F
:10216C0008D1FB681B68DA68FB681B6842F0200228
:10217C00DA6007E0FB681B681A69FB681B6842F0B1
:10218C0020021A61002306E0FB685B6A43F480229C
:10219C00FB685A62012318461C37BD4680BC704749
:1021AC0080B485B000AF786039607B6893F82030DC
:1021BC00FB73FB7B012B02D0FB7B022B09D17B68D1
:1021CC001B6859697B681B683A680A435A6100238B
:1021DC0006E07B685B6A43F480227B685A620123C9
:1021EC0018461437BD4680BC704780B58AB000AF26
:1021FC00786000237B627B681B685B693B627B6851
:10220C001B685B68FB617B681B689B68BB617B68B8
:10221C001B68DB687B617B681B681B693B617B68A7
:10222C001B689B69FB603B6A03F00103002B7CD0AD
:10223C00BB6903F00103002B23D07B681B680122D0
:10224C009A60BB6903F00203002B03D0786800F09E
:10225C0083F916E0BB6903F00403002B04D07B6AFE
:10226C0043F400637B620CE0BB6903F00803002BB2
:10227C0004D07B6A43F480537B6202E0786800F000
:10228C0086F9BB6903F48073002B24D07B681B6830
:10229C004FF480729A60BB6903F40073002B03D077
:1022AC00786800F062F916E0BB6903F48063002BD8
:1022BC0004D07B6A43F400537B620CE0BB6903F4EB
:1022CC000063002B04D07B6A43F480437B6202E002
:1022DC00786800F065F9BB6903F48033002B24D0D7
:1022EC007B681B684FF480329A60BB6903F400333F
:1022FC00002B03D0786800F041F916E0BB6903F4B9
:10230C008023002B04D07B6A43F400437B620CE0F7
:10231C00BB6903F40023002B04D07B6A43F48033A5
:10232C007B6202E0786800F044F93B6A03F0080332
:10233C00002B0CD07B6903F01003002B07D07B6AB9
:10234C0043F400737B627B681B681022DA603B6A83
:10235C0003F00403002B0BD07B6903F00803002B64
:10236C0006D07B681B680822DA60786800F02AF9CE
:10237C003B6A03F00203002B09D07B681B68DB6807
:10238C0003F00303002B02D07868FDF787FF3B6A4C
:10239C0003F04003002B0CD03B6903F01003002B1F
:1023AC0007D07B6A43F480637B627B681B681022D6
:1023BC001A613B6A03F02003002B0BD03B6903F03E
:1023CC000803002B06D07B681B6808221A6178680A
:1023DC0000F00AF93B6A03F01003002B09D07B686C
:1023EC001B681B6903F00303002B02D0786800F014
:1023FC00F2F83B6A03F40033002B0BD0FB6903F0BB
:10240C001003002B06D07B681B6810225A6078687A
:10241C0000F0F3F83B6A03F48033002B0BD0FB691C
:10242C0003F00803002B06D07B681B6808225A6057
:10243C00786800F0EBF83B6A03F40043002B7BD088
:10244C00FB6903F00403002B72D03B6A03F4807326
:10245C00002B08D0FB6803F00103002B03D07B6A30
:10246C0043F001037B623B6A03F40073002B08D03A
:10247C00FB6803F00203002B03D07B6A43F00203DA
:10248C007B623B6A03F48063002B08D0FB6803F08B
:10249C000403002B03D07B6A43F004037B623B6A8A
:1024AC0003F40063002B43D0FB6803F07003002B94
:1024BC003ED0FB6803F07003602B2BD0602B2ED822
:1024CC00502B22D0502B2AD8402B19D0402B26D859
:1024DC00302B10D0302B22D8102B02D0202B05D033
:1024EC001DE07B6A43F008037B6219E07B6A43F0D2
:1024FC0010037B6214E07B6A43F020037B620FE0E5
:10250C007B6A43F040037B620AE07B6A43F0800302
:10251C007B6205E07B6A43F480737B6200E000BF62
:10252C007B681B689A697B681B6822F070029A6151
:10253C007B681B6804225A607B6A002B08D07B687E
:10254C005A6A7B6A1A437B685A62786800F067F8AB
:10255C0000BF2837BD4680BD80B483B000AF786023
:10256C0000BF0C37BD4680BC704780B483B000AF51
:10257C00786000BF0C37BD4680BC704780B483B018
:10258C0000AF786000BF0C37BD4680BC704780B48C
:10259C0083B000AF786000BF0C37BD4680BC70477D
:1025AC0080B483B000AF786000BF0C37BD4680BCF0
:1025BC00704780B483B000AF786000BF0C37BD4665
:1025CC0080BC704780B483B000AF786000BF0C371C
:1025DC00BD4680BC704780B483B000AF786000BF4C
:1025EC000C37BD4680BC704780B483B000AF7860B8
:1025FC0000BF0C37BD4680BC704780B483B000AFC1
:10260C00786000BF0C37BD4680BC704780B483B087
:10261C0000AF786000BF0C37BD4680BC704780B4FB
:10262C0083B000AF786000BF0C37BD4680BC7047EC
:10263C0080B485B000AF78607B6803F00703FB6063
:10264C000C4BDB68BB60BA684FF6FF031340BB60F2
:10265C00FB681A02BB68134343F0BF6343F40033B7
:10266C00BB60044ABB68D36000BF1437BD4680BC56
:10267C00704700BF00ED00E080B400AF044BDB6896
:10268C001B0A03F007031846BD4680BC704700BF09
:10269C0000ED00E080B483B000AF0346FB7197F906
:1026AC000730002B0BDBFB7903F01F02064997F96F
:1026BC0007305B09012000FA02F241F8232000BF29
:1026CC000C37BD4680BC704700E100E080B483B09D
:1026DC0000AF03463960FB7197F90730002B0ADB1A
:1026EC003B68DAB20C4997F907301201D2B20B44AD
:1026FC0083F800230AE03B68DAB20849FB7903F05F
:10270C000F03043B1201D2B20B441A7600BF0C37F4
:10271C00BD4680BC704700BF00E100E000ED00E06A
:10272C0080B489B000AFF860B9607A60FB6803F0E0
:10273C000703FB61FB69C3F10703042B28BF0423C8
:10274C00BB61FB690433062B02D9FB69033B00E038
:10275C0000237B614FF0FF32BB6902FA03F3DA43CB
:10276C00BB681A407B699A404FF0FF317B6901FAD4
:10277C0003F3D9437B680B40134318462437BD46FB
:10278C0080BC704780B582B000AF78607B68013B3D
:10279C00B3F1807F01D301230FE00A4A7B68013B30
:1027AC0053600F214FF0FF30FFF790FF054B0022D5
:1027BC009A60044B07221A60002318460837BD465E
:1027CC0080BD00BF10E000E080B582B000AF786043
:1027DC007868FFF72DFF00BF0837BD4680BD80B578
:1027EC0086B000AF0346B9607A60FB7300237B614F
:1027FC00FFF742FF78617A68B9687869FFF790FF54
:10280C00024697F90F3011461846FFF75FFF00BFDD
:10281C001837BD4680BD80B582B000AF0346FB7152
:10282C0097F907301846FFF735FF00BF0837BD464C
:10283C0080BD80B582B000AF78607868FFF7A2FFEA
:10284C00034618460837BD4680BD80B485B000AF3E
:10285C0078600023FB737B6893F82130DBB2022B8A
:10286C0008D07B6804229A637B68002283F82020BE
:10287C00012320E07B681B681A687B681B6822F0C8
:10288C000E021A607B681B681A687B681B6822F052
:10289C0001021A607B681A6C7B68DB6B012101FA00
:1028AC0002F25A607B68012283F821207B680022A7
:1028BC0083F82020FB7B18461437BD4680BC70473C
:1028CC0080B584B000AF78600023FB737B6893F80D
:1028DC002130DBB2022B05D07B6804229A630123E2
:1028EC00FB7351E07B681B681A687B681B6822F0DD
:1028FC000E021A607B681B681A687B681B6822F0E2
:10290C0001021A607B681B68224A934229D07B68BB
:10291C001B68214A934222D07B681B681F4A934252
:10292C001AD07B681B681E4A934212D07B681B68C6
:10293C001C4A93420AD07B681B681B4A934202D103
:10294C004FF480130EE04FF080730BE04FF48033A4
:10295C0008E04FF4805305E04FF4807302E010233D
:10296C0000E00123114A53607B68012283F8212087
:10297C007B68002283F820207B685B6B002B03D0E4
:10298C007B685B6B78689847FB7B18461037BD46B5
:10299C0080BD00BF080002401C0002403000024015
:1029AC0044000240580002406C000240000002400B
:1029BC0080B48BB000AF7860396000237B62002359
:1029CC003B6269E101227B6A02FA03F3FB613B681B
:1029DC001B68FA691340BB61BA69FB699A4240F003
:1029EC0058813B685B689A4A93425ED0984A9342FE
:1029FC0075D8984A934258D0964A93426FD8964AC3
:102A0C00934252D0944A934269D8944A93424CD000
:102A1C00924A934263D8924A934246D0904A934248
:102A2C005DD8122B2AD8122B59D801A252F823F0B8
:102A3C00B72A0008912A0008A32A0008E52A0008F2
:102A4C00EB2A0008EB2A0008EB2A0008EB2A000806
:102A5C00EB2A0008EB2A0008EB2A0008EB2A0008F6
:102A6C00EB2A0008EB2A0008EB2A0008EB2A0008E6
:102A7C00EB2A0008992A0008AD2A0008794A9342EB
:102A8C0013D02CE03B68DB683B6229E03B68DB68D9
:102A9C0004333B6224E03B68DB6808333B621FE095
:102AAC003B68DB680C333B621AE03B689B68002B8D
:102ABC0002D104233B6213E03B689B68012B05D1D8
:102ACC0008233B627B68FA691A6109E008233B62C0
:102ADC007B68FA695A6103E000233B6200E000BFA7
:102AEC00BB69FF2B01D87B6801E07B6804337B61F9
:102AFC00BB69FF2B02D87B6A9B0002E07B6A083B18
:102B0C009B003B617B691A680F213B6901FA03F357
:102B1C00DB431A40396A3B6901FA03F31A437B69B8
:102B2C001A603B685B6803F08053002B00F0B180A7
:102B3C004D4B9B694C4A43F0010393614A4B9B6993
:102B4C0003F00103BB60BB68484A7B6A9B080233F5
:102B5C0052F82330FB607B6A03F003039B000F22C7
:102B6C0002FA03F3DB43FA681340FB607B68404ACC
:102B7C00934213D07B683F4A93420DD07B683E4A08
:102B8C00934207D07B683D4A934201D1032306E070
:102B9C00042304E0022302E0012300E000237A6A0C
:102BAC0002F0030292009340FA681343FB602F4932
:102BBC007B6A9B080233FA6841F823203B685B6808
:102BCC0003F48013002B06D02D4B9A682C49BB695B
:102BDC0013438B6006E02A4B9A68BB69DB43284998
:102BEC0013408B603B685B6803F40013002B06D02A
:102BFC00234BDA682249BB691343CB6006E0204BB8
:102C0C00DA68BB69DB431E491340CB603B685B68E9
:102C1C0003F40033002B06D0194B5A681849BB69D2
:102C2C0013434B6006E0164B5A68BB69DB431449EF
:102C3C0013404B603B685B6803F48033002B21D05E
:102C4C000F4B1A680E49BB6913430B6021E000BFA0
:102C5C000000321000003110000022100000211082
:102C6C000000121000001110001002400000014082
:102C7C0000080140000C014000100140001401400C
:102C8C00000401400B4B1A68BB69DB430949134034
:102C9C000B607B6A01337B623B681A687B6A22FAA1
:102CAC0003F3002B7FF48EAE00BF00BF2C37BD4664
:102CBC0080BC70470004014080B483B000AF7860E2
:102CCC000B467B8013467B707B78002B03D07A8875
:102CDC007B681A6103E07B881A047B681A6100BF69
:102CEC000C37BD4680BC704780B485B000AF7860AF
:102CFC000B467B807B68DB68FB607A88FB68134043
:102D0C001A04FB68D9437B880B401A437B681A6111
:102D1C0000BF1437BD4680BC7047000080B586B03C
:102D2C0000AF78607B68002B01D1012372E27B68D5
:102D3C001B6803F00103002B00F08780924B5B684B
:102D4C0003F00C03042B0CD08F4B5B6803F00C03CB
:102D5C00082B12D18C4B5B6803F48033B3F5803FA6
:102D6C000BD1894B1B6803F40033002B6CD07B68B0
:102D7C005B68002B68D101234CE27B685B68B3F580
:102D8C00803F06D1804B1B687F4A43F4803313602D
:102D9C002EE07B685B68002B0CD17B4B1B687A4A5E
:102DAC0023F480331360784B1B68774A23F4802319
:102DBC0013601DE07B685B68B3F5A02F0CD1724BE0
:102DCC001B68714A43F4802313606F4B1B686E4A77
:102DDC0043F4803313600BE06B4B1B686A4A23F49B
:102DEC0080331360684B1B68674A23F4802313609D
:102DFC007B685B68002B13D0FEF7D0FD386108E0D0
:102E0C00FEF7CCFD02463B69D31A642B01D9032390
:102E1C0000E25D4B1B6803F40033002BF0D014E090
:102E2C00FEF7BCFD386108E0FEF7B8FD02463B69D1
:102E3C00D31A642B01D90323ECE1534B1B6803F425
:102E4C000033002BF0D100E000BF7B681B6803F05F
:102E5C000203002B63D04C4B5B6803F00C03002B7C
:102E6C000BD0494B5B6803F00C03082B1CD1464B71
:102E7C005B6803F48033002B16D1434B1B6803F0C3
:102E8C000203002B05D07B681B69012B01D00123A9
:102E9C00C0E13D4B1B6823F0F8027B685B69DB00EB
:102EAC00394913430B603AE07B681B69002B20D037
:102EBC00364B01221A60FEF771FD386108E0FEF70F
:102ECC006DFD02463B69D31A022B01D90323A1E104
:102EDC002D4B1B6803F00203002BF0D02A4B1B6810
:102EEC0023F0F8027B685B69DB00274913430B6016
:102EFC0015E0264B00221A60FEF750FD386108E001
:102F0C00FEF74CFD02463B69D31A022B01D9032371
:102F1C0080E11D4B1B6803F00203002BF0D17B6892
:102F2C001B6803F00803002B3AD07B689B69002BCD
:102F3C0019D0174B01221A60FEF730FD386108E0FA
:102F4C00FEF72CFD02463B69D31A022B01D9032351
:102F5C0060E10D4B5B6A03F00203002BF0D0012003
:102F6C0000F0CEFA1CE00A4B00221A60FEF716FDA8
:102F7C0038610FE0FEF712FD02463B69D31A022BB3
:102F8C0008D9032346E100BF001002400000424272
:102F9C0080044242924B5B6A03F00203002BE9D19E
:102FAC007B681B6803F00403002B00F0A680002351
:102FBC00FB758B4BDB6903F08053002B0DD1884BD9
:102FCC00DB69874A43F08053D361854BDB6903F09F
:102FDC008053BB60BB680123FB75824B1B6803F4F9
:102FEC008073002B18D17F4B1B687E4A43F480738F
:102FFC001360FEF7D3FC386108E0FEF7CFFC024605
:10300C003B69D31A642B01D9032303E1754B1B686D
:10301C0003F48073002BF0D07B68DB68012B06D1A6
:10302C006F4B1B6A6E4A43F0010313622DE07B6801
:10303C00DB68002B0CD16A4B1B6A694A23F0010335
:10304C001362674B1B6A664A23F0040313621CE08D
:10305C007B68DB68052B0CD1614B1B6A604A43F023
:10306C00040313625E4B1B6A5D4A43F00103136257
:10307C000BE05B4B1B6A5A4A23F001031362584B5B
:10308C001B6A574A23F0040313627B68DB68002B2E
:10309C0015D0FEF783FC38610AE0FEF77FFC024690
:1030AC003B69D31A41F28832934201D90323B1E030
:1030BC004B4B1B6A03F00203002BEED014E0FEF71F
:1030CC006DFC38610AE0FEF769FC02463B69D31AD5
:1030DC0041F28832934201D903239BE0404B1B6A97
:1030EC0003F00203002BEED1FB7D012B05D13C4BF1
:1030FC00DB693B4A23F08053D3617B68DB69002B8F
:10310C0000F08780364B5B6803F00C03082B61D012
:10311C007B68DB69022B46D1334B00221A60FEF729
:10312C003DFC386108E0FEF739FC02463B69D31AD6
:10313C00022B01D903236DE0294B1B6803F00073AC
:10314C00002BF0D17B681B6AB3F5803F08D1244B70
:10315C005B6823F400327B689B68214913434B6006
:10316C001F4B5B6823F474127B68196A7B685B6A7B
:10317C000B431B4913434B601B4B01221A60FEF798
:10318C000DFC386108E0FEF709FC02463B69D31AD6
:10319C00022B01D903233DE0114B1B6803F0007394
:1031AC00002BF0D035E0104B00221A60FEF7F6FB36
:1031BC00386108E0FEF7F2FB02463B69D31A022B9A
:1031CC0001D9032326E0064B1B6803F00073002B88
:1031DC00F0D11EE07B68DB69012B07D1012319E0DC
:1031EC000010024000700040600042420B4B5B68D4
:1031FC00FB60FB6803F480327B681B6A9A4206D141
:10320C00FB6803F470127B685B6A9A4201D001235D
:10321C0000E0002318461837BD4680BD0010024060
:10322C0080B584B000AF786039607B68002B01D129
:10323C000123D0E06A4B1B6803F007033A689A42FB
:10324C0010D9674B1B6823F0070265493B68134391
:10325C000B60634B1B6803F007033A689A4201D07A
:10326C000123B8E07B681B6803F00203002B20D01D
:10327C007B681B6803F00403002B05D0594B5B687B
:10328C00584A43F4E06353607B681B6803F00803FF
:10329C00002B05D0534B5B68524A43F46053536088
:1032AC00504B5B6823F0F0027B689B684D491343DD
:1032BC004B607B681B6803F00103002B40D07B68DC
:1032CC005B68012B07D1474B1B6803F40033002BC1
:1032DC0015D101237FE07B685B68022B07D1414B42
:1032EC001B6803F00073002B09D1012373E03D4BE5
:1032FC001B6803F00203002B01D101236BE0394B57
:10330C005B6823F003027B685B68364913434B60B0
:10331C00FEF744FBF8600AE0FEF740FB0246FB6850
:10332C00D31A41F28832934201D9032353E02D4B37
:10333C005B6803F00C027B685B689B009A42EBD1E4
:10334C00274B1B6803F007033A689A4210D2244BB0
:10335C001B6823F0070222493B6813430B60204B88
:10336C001B6803F007033A689A4201D0012332E04C
:10337C007B681B6803F00403002B08D0194B5B68B7
:10338C0023F4E0627B68DB68164913434B607B686F
:10339C001B6803F00803002B09D0124B5B6823F465
:1033AC0060527B681B69DB000E4913434B6000F0D5
:1033BC0021F802460B4B5B681B0903F00F030A490B
:1033CC00CB5C22FA03F3094A1360094B1B681846BD
:1033DC00FEF7A2FA002318461037BD4680BD00BF89
:1033EC000020024000100240244C00080000002085
:1033FC000400002080B487B000AF0023FB600023E2
:10340C00BB6000237B6100237B6000233B611E4B70
:10341C005B68FB60FB6803F00C03042B02D0082BE9
:10342C0003D027E0194B3B6127E0FB689B0C03F0B2
:10343C000F03174AD35C7B60FB6803F48033002BCB
:10344C0010D0114B5B685B0C03F00103114AD35C89
:10345C00BB607B680D4A03FB02F2BB68B2FBF3F363
:10346C007B6104E07B680C4A02FB03F37B617B69A4
:10347C003B6102E0054B3B6100BF3B6918461C37C2
:10348C00BD4680BC704700BF0010024000127A009D
:10349C003C4C00084C4C000800093D0080B400AFC7
:1034AC00024B1B681846BD4680BC704700000020CC
:1034BC0080B500AFFFF7F2FF0246054B5B681B0AB5
:1034CC0003F007030349CB5C22FA03F3184680BDD3
:1034DC0000100240344C000880B500AFFFF7DEFF4F
:1034EC000246054B5B68DB0A03F007030349CB5C20
:1034FC0022FA03F3184680BD00100240344C000839
:10350C0080B485B000AF78600A4B1B680A4AA2FBF6
:10351C0003235B0A7A6802FB03F3FB6000BFFB68C2
:10352C005A1EFA60002BF9D100BF00BF1437BD46FC
:10353C0080BC704700000020D34D621080B582B073
:10354C0000AF78607B68002B01D1012341E07B68E0
:10355C0093F83D30DBB2002B06D17B68002283F858
:10356C003C207868FEF7B4F87B68022283F83D2093
:10357C007B681A687B6804331946104600F0A2FA7F
:10358C007B68012283F846207B68012283F83E2069
:10359C007B68012283F83F207B68012283F840205E
:1035AC007B68012283F841207B68012283F842204A
:1035BC007B68012283F843207B68012283F8442036
:1035CC007B68012283F845207B68012283F83D202B
:1035DC00002318460837BD4680BD000080B485B076
:1035EC0000AF78607B6893F83D30DBB2012B01D0E3
:1035FC0001233AE07B68022283F83D207B681B683C
:10360C00DA687B681B6842F00102DA607B681B6831
:10361C00184A93420ED07B681B68B3F1804F09D0D7
:10362C007B681B68144A934204D07B681B68134A5E
:10363C00934211D17B681B689B6803F00703FB6006
:10364C00FB68062B10D07B681B681A687B681B68AC
:10365C0042F001021A6007E07B681B681A687B68FD
:10366C001B6842F001021A60002318461437BD464D
:10367C0080BC7047002C0140000400400008004052
:10368C0080B483B000AF78607B681B68DA687B68B5
:10369C001B6822F00102DA607B681B681A6A41F22F
:1036AC0011131340002B0FD17B681B681A6A40F270
:1036BC0044431340002B07D17B681B681A687B6856
:1036CC001B6822F001021A607B68012283F83D20FE
:1036DC00002318460C37BD4680BC704780B582B0BD
:1036EC0000AF78607B681B681B6903F00203022B38
:1036FC0022D17B681B68DB6803F00203022B1BD111
:10370C007B681B686FF002021A617B6801221A77D2
:10371C007B681B689B6903F00303002B03D078685C
:10372C0000F0B4F905E0786800F0A7F9786800F0CB
:10373C00B6F97B6800221A777B681B681B6903F05B
:10374C000403042B22D17B681B68DB6803F00403A1
:10375C00042B1BD17B681B686FF004021A617B6819
:10376C0002221A777B681B689B6903F44073002B59
:10377C0003D0786800F08AF905E0786800F07DF9EC
:10378C00786800F08CF97B6800221A777B681B68DC
:10379C001B6903F00803082B22D17B681B68DB68CC
:1037AC0003F00803082B1BD17B681B686FF0080221
:1037BC001A617B6804221A777B681B68DB6903F04B
:1037CC000303002B03D0786800F060F905E07868FB
:1037DC0000F053F9786800F062F97B6800221A77E0
:1037EC007B681B681B6903F01003102B22D17B68CC
:1037FC001B68DB6803F01003102B1BD17B681B6864
:10380C006FF010021A617B6808221A777B681B68BC
:10381C00DB6903F44073002B03D0786800F036F9B1
:10382C0005E0786800F029F9786800F038F97B68D1
:10383C0000221A777B681B681B6903F00103012BBC
:10384C000ED17B681B68DB6803F00103012B07D1E9
:10385C007B681B686FF001021A617868FDF748FEFF
:10386C007B681B681B6903F08003802B0ED17B687F
:10387C001B68DB6803F08003802B07D17B681B6817
:10388C006FF080021A61786800F07BFA7B681B6825
:10389C001B6903F04003402B0ED17B681B68DB686F
:1038AC0003F04003402B07D17B681B686FF040028C
:1038BC001A61786800F0FCF87B681B681B6903F0E0
:1038CC002003202B0ED17B681B68DB6803F02003E0
:1038DC00202B07D17B681B686FF020021A61786877
:1038EC0000F046FA00BF0837BD4680BD80B584B0F5
:1038FC0000AF786039600023FB737B6893F83C3031
:10390C00012B01D10223B4E07B68012283F83C2017
:10391C007B68022283F83D207B681B689B68BB6038
:10392C00BB6823F07703BB60BB6823F47F43BB60A9
:10393C007B681B68BA689A603B681B68B3F5005FCC
:10394C003ED0B3F5005F00F28780B3F5805F00F0E6
:10395C008680B3F5805F7FD8702B1AD0702B7BD804
:10396C00602B50D0602B77D8502B3CD0502B73D879
:10397C00402B58D0402B6FD8302B64D0302B6BD8C9
:10398C00202B60D0202B67D8002B5CD0102B5AD06A
:10399C0062E07B6818683B6899683B685A683B68CA
:1039AC00DB6800F068F97B681B689B68BB60BB68D0
:1039BC0043F07703BB607B681B68BA689A604FE082
:1039CC007B6818683B6899683B685A683B68DB6899
:1039DC0000F051F97B681B689A687B681B6842F49D
:1039EC0080429A603CE07B6818683B6859683B6889
:1039FC00DB681A4600F0C8F87B681B685021184633
:103A0C0000F01FF92CE07B6818683B6859683B682C
:103A1C00DB681A4600F0E6F87B681B6860211846E4
:103A2C0000F00FF91CE07B6818683B6859683B682C
:103A3C00DB681A4600F0A8F87B681B684021184622
:103A4C0000F0FFF80CE07B681A683B681B681946AD
:103A5C00104600F0F6F803E00123FB7300E000BF12
:103A6C007B68012283F83D207B68002283F83C2090
:103A7C00FB7B18461037BD4680BD80B483B000AFC9
:103A8C00786000BF0C37BD4680BC704780B483B0F3
:103A9C0000AF786000BF0C37BD4680BC704780B467
:103AAC0083B000AF786000BF0C37BD4680BC704758
:103ABC0080B483B000AF786000BF0C37BD4680BCCB
:103ACC007047000080B485B000AF786039607B68C7
:103ADC001B68FB607B68294A93420BD07B68B3F16F
:103AEC00804F07D07B68264A934203D07B68254AD7
:103AFC00934208D1FB6823F07003FB603B685B6862
:103B0C00FA681343FB607B681C4A93420BD07B68BA
:103B1C00B3F1804F07D07B68194A934203D07B687E
:103B2C00184A934208D1FB6823F44073FB603B684E
:103B3C00DB68FA681343FB60FB6823F080023B6888
:103B4C005B691343FB607B68FA681A603B689A6890
:103B5C007B68DA623B681A687B689A627B68074A02
:103B6C00934203D13B681A697B681A637B68012214
:103B7C005A6100BF1437BD4680BC7047002C014011
:103B8C00000400400008004080B487B000AFF8602B
:103B9C00B9607A60FB681B6A7B61FB681B6A23F067
:103BAC000102FB681A62FB689B693B613B6923F06D
:103BBC00F0033B617B681B013A6913433B617B69F2
:103BCC0023F00A037B617A69BB6813437B61FB6852
:103BDC003A699A61FB687A691A6200BF1C37BD4664
:103BEC0080BC704780B487B000AFF860B9607A6071
:103BFC00FB681B6A7B61FB681B6A23F01002FB6885
:103C0C001A62FB689B693B613B6923F470433B611F
:103C1C007B681B033A6913433B617B6923F0A00368
:103C2C007B61BB681B017A6913437B61FB683A6952
:103C3C009A61FB687A691A6200BF1C37BD4680BC6A
:103C4C00704780B485B000AF786039607B689B6842
:103C5C00FB60FB6823F07003FB603A68FB6813435E
:103C6C0043F00703FB607B68FA689A6000BF143767
:103C7C00BD4680BC704780B487B000AFF860B960B7
:103C8C007A603B60FB689B687B617B6923F47F43B4
:103C9C007B613B681A027B681A43BB6813437A69E1
:103CAC0013437B61FB687A699A6000BF1C37BD4681
:103CBC0080BC704780B485B000AF786039607B6899
:103CCC0093F83C30012B01D1022346E07B680122A2
:103CDC0083F83C207B68022283F83D207B681B68BC
:103CEC005B68FB607B681B689B68BB60FB6823F0B0
:103CFC007003FB603B681B68FA681343FB607B68CE
:103D0C001B68FA685A607B681B68164A93420ED08F
:103D1C007B681B68B3F1804F09D07B681B68124A23
:103D2C00934204D07B681B68104A93420CD1BB6849
:103D3C0023F08003BB603B685B68BA681343BB60CD
:103D4C007B681B68BA689A607B68012283F83D2007
:103D5C007B68002283F83C20002318461437BD46AC
:103D6C0080BC7047002C014000040040000800405B
:103D7C0080B483B000AF786000BF0C37BD4680BC08
:103D8C00704780B483B000AF786000BF0C37BD467D
:103D9C0080BC704780B582B000AF78607B68002B28
:103DAC0001D1012342E07B6893F84130DBB2002B58
:103DBC0006D17B68002283F840207868FDF7C8FCA8
:103DCC007B68242283F841207B681B68DA687B6857
:103DDC001B6822F40052DA60786800F057FE7B68AA
:103DEC001B681A697B681B6822F490421A617B6815
:103DFC001B685A697B681B6822F02A025A617B682F
:103E0C001B68DA687B681B6842F40052DA607B68D6
:103E1C0000225A647B68202283F841207B68202290
:103E2C0083F842207B6800225A6300231846083727
:103E3C00BD4680BD80B58AB002AFF860B9603B600A
:103E4C001346FB8000237B61FB6893F84130DBB2A7
:103E5C00202B6DD1BB68002B02D0FB88002B01D12D
:103E6C00012366E0FB6800225A64FB68212283F878
:103E7C004120FDF793FD7861FB68FA889A84FB6812
:103E8C00FA88DA84FB689B68B3F5805F08D1FB681D
:103E9C001B69002B04D10023FB61BB68BB6103E0F1
:103EAC00BB68FB610023BB612AE03B6800937B6924
:103EBC0000228021F86800F0A6FB0346002B01D0FD
:103ECC00032336E0FB69002B0BD1BB691B881A4618
:103EDC00FB681B68C2F308025A60BB690233BB6102
:103EEC0007E0FB691A78FB681B685A60FB690133B1
:103EFC00FB61FB68DB8C9BB2013B9AB2FB68DA84FA
:103F0C00FB68DB8C9BB2002BCFD13B6800937B69A9
:103F1C0000224021F86800F076FB0346002B01D00C
:103F2C00032306E0FB68202283F84120002300E0F5
:103F3C00022318462037BD4680BD80B58AB002AF3B
:103F4C00F860B9603B601346FB8000237B61FB6823
:103F5C0093F84230DBB2202B7CD1BB68002B02D013
:103F6C00FB88002B01D1012375E0FB6800225A6409
:103F7C00FB68222283F84220FB6800221A63FDF7BB
:103F8C000DFD7861FB68FA889A85FB68FA88DA85FA
:103F9C00FB689B68B3F5805F08D1FB681B69002B3D
:103FAC0004D10023FB61BB68BB6103E0BB68FB6110
:103FBC000023BB6143E03B6800937B690022202116
:103FCC00F86800F020FB0346002B01D0032342E0ED
:103FDC00FB69002B0CD1FB681B685B689BB2C3F3BD
:103FEC0008039AB2BB691A80BB690233BB611FE03C
:103FFC00FB689B68B3F5805F07D0FB689B68002B60
:10400C000AD1FB681B69002B06D1FB681B685B6837
:10401C00DAB2FB691A7008E0FB681B685B68DBB2FC
:10402C0003F07F03DAB2FB691A70FB690133FB61A1
:10403C00FB68DB8D9BB2013B9AB2FB68DA85FB68AF
:10404C00DB8D9BB2002BB6D1FB68202283F842207B
:10405C00002300E0022318462037BD4680BD80B502
:10406C0084B000AFF860B9601346FB80FB6893F82E
:10407C004230DBB2202B12D1BB68002B02D0FB8864
:10408C00002B01D101230BE0FB6800221A63FB8893
:10409C001A46B968F86800F024FB034600E00223D6
:1040AC0018461037BD4680BD80B5BAB000AF7860F9
:1040BC007B681B681B68C7F8E4307B681B68DB688F
:1040CC00C7F8E0307B681B685B69C7F8DC300023FD
:1040DC00C7F8D8300023C7F8D430D7F8E43003F051
:1040EC000F03C7F8D830D7F8D830002B0FD1D7F83A
:1040FC00E43003F02003002B09D0D7F8E03003F0B4
:10410C002003002B03D0786800F001FC5BE2D7F8A9
:10411C00D830002B00F0DE80D7F8DC3003F0010340
:10412C00002B06D1D7F8E03003F49073002B00F08D
:10413C00D180D7F8E43003F00103002B0BD0D7F873
:10414C00E03003F48073002B05D07B685B6C43F08C
:10415C0001027B685A64D7F8E43003F00403002BA7
:10416C000BD0D7F8DC3003F00103002B05D07B68B3
:10417C005B6C43F002027B685A64D7F8E43003F0BE
:10418C000203002B0BD0D7F8DC3003F00103002B1B
:10419C0005D07B685B6C43F004027B685A64D7F8EB
:1041AC00E43003F00803002B11D0D7F8E03003F013
:1041BC002003002B05D1D7F8DC3003F00103002BD2
:1041CC0005D07B685B6C43F008027B685A647B68A3
:1041DC005B6C002B00F0F281D7F8E43003F0200385
:1041EC00002B08D0D7F8E03003F02003002B02D0CE
:1041FC00786800F08CFB7B681B685B6903F04003FC
:10420C00002B14BF01230023DBB2C7F8D4307B682A
:10421C005B6C03F00803002B03D1D7F8D430002BD0
:10422C004FD0786800F096FA7B681B685B6903F0E6
:10423C004003002B41D07B681B681433C7F89C30BB
:10424C00D7F89C3053E8003FC7F89830D7F898302F
:10425C0023F04003C7F8D0307B681B681433D7F8C1
:10426C00D020C7F8A820C7F8A430D7F8A410D7F8E6
:10427C00A82041E80023C7F8A030D7F8A030002BC5
:10428C00D9D17B68DB6B002B13D07B68DB6B7E4A50
:10429C005A637B68DB6B1846FEF712FB0346002B58
:1042AC0016D07B68DB6B5B6B7A68D26B10469847D9
:1042BC000EE0786800F093F90AE0786800F08FF966
:1042CC0006E0786800F08BF97B6800225A6475E18F
:1042DC0000BF73E17B681B6B012B40F04F81D7F85B
:1042EC00E43003F01003002B00F04881D7F8E030E5
:1042FC0003F01003002B00F041810023BB607B68AE
:10430C001B681B68BB607B681B685B68BB60BB6819
:10431C007B681B685B6903F04003002B00F0B680E0
:10432C007B68DB6B1B685B68A7F8BE30B7F8BE30E8
:10433C00002B00F045817B689B8DB7F8BE209A421C
:10434C0080F03E817B68B7F8BE20DA857B68DB6B3A
:10435C009B69202B00F088807B681B680C33C7F8A6
:10436C008830D7F8883053E8003FC7F88430D7F846
:10437C00843023F48073C7F8B8307B681B680C3327
:10438C00D7F8B820C7F89420C7F89030D7F8901019
:10439C00D7F8942041E80023C7F88C30D7F88C303C
:1043AC00002BD9D17B681B6814337B677B6F53E878
:1043BC00003F3B673B6F23F00103C7F8B4307B68C9
:1043CC001B681433D7F8B420C7F88020FB67F96F4B
:1043DC00D7F8802041E80023BB67BB6F002BE1D1ED
:1043EC007B681B6814333B663B6E53E8003FFB65F0
:1043FC00FB6D23F04003C7F8B0307B681B681433A7
:10440C00D7F8B020FA66BB66B96EFA6E41E80023A5
:10441C007B667B6E002BE3D17B68202283F84220E5
:10442C007B6800221A637B681B680C33FB64FB6C93
:10443C0053E8003FBB64BB6C23F01003C7F8AC30EF
:10444C007B681B680C33D7F8AC20BA657B65796D3B
:10445C00BA6D41E800233B653B6D002BE3D17B68D3
:10446C00DB6B1846FEF7F1F97B6802225A637B6816
:10447C009A8D7B68DB8D9BB2D31A9BB219467868F8
:10448C0000F0B6F89CE000BF254800087B689A8DC8
:10449C007B68DB8D9BB2D31AA7F8CE307B68DB8DA3
:1044AC009BB2002B00F08E80B7F8CE30002B00F0C2
:1044BC0089807B681B680C33BB63BB6B53E8003F84
:1044CC007B637B6B23F49073C7F8C8307B681B68E5
:1044DC000C33D7F8C8207A643B64396C7A6C41E8A9
:1044EC000023FB63FB6B002BE3D17B681B6814334D
:1044FC007B627B6A53E8003F3B623B6A23F001031B
:10450C00C7F8C4307B681B681433D7F8C4203A63EF
:10451C00FB62F96A3A6B41E80023BB62BB6A002B71
:10452C00E3D17B68202283F842207B6800221A6347
:10453C007B681B680C333B613B6953E8003FFB60B5
:10454C00FB6823F01003C7F8C0307B681B680C3382
:10455C00D7F8C020FA61BB61B969FA6941E8002358
:10456C007B617B69002BE3D17B6802225A63B7F82D
:10457C00CE301946786800F03BF823E0D7F8E430E9
:10458C0003F08003002B09D0D7F8E03003F0800350
:10459C00002B03D0786800F053F914E0D7F8E4301E
:1045AC0003F04003002B0ED0D7F8E03003F04003AB
:1045BC00002B08D0786800F092F904E000BF02E00C
:1045CC0000BF00E000BFE837BD4680BD80B483B0BB
:1045DC0000AF786000BF0C37BD4680BC704780B41C
:1045EC0083B000AF786000BF0C37BD4680BC70470D
:1045FC0080B483B000AF78600B467B8000BF0C3773
:10460C00BD4680BC704780B590B000AFF860B96013
:10461C003B601346FB7150E0BB6CB3F1FF3F4CD0D9
:10462C00BB6C002B07D0FDF7B9F902463B68D31AD7
:10463C00BA6C9A4241D2FB681B680C33BB62BB6AF2
:10464C0053E8003F7B627B6A23F4D073FB63FB6807
:10465C001B680C33FA6B7A633B63396B7A6B41E8FA
:10466C000023FB62FB6A002BE5D1FB681B6814334B
:10467C007B617B6953E8003F3B613B6923F001039D
:10468C00BB63FB681B681433BA6B3A62FB61F96954
:10469C003A6A41E80023BB61BB69002BE5D1FB689A
:1046AC00202283F84120FB68202283F84220FB68FB
:1046BC00002283F8402003230FE0FB681B681A6874
:1046CC00BB681340BA689A420CBF01230023DBB2CB
:1046DC001A46FB799A429FD0002318464037BD46B4
:1046EC0080BD80B485B000AFF860B9601346FB8024
:1046FC00FB68BA689A62FB68FA889A85FB68FA8844
:10470C00DA85FB6800225A64FB68222283F8422077
:10471C00FB681B69002B07D0FB681B68DA68FB6819
:10472C001B6842F48072DA60FB681B685A69FB688C
:10473C001B6842F001025A61FB681B68DA68FB686F
:10474C001B6842F02002DA60002318461437BD467D
:10475C0080BC704780B495B000AF78607B681B68F4
:10476C000C337B637B6B53E8003F3B633B6B23F465
:10477C009073FB647B681B680C33FA6C3A64FB63C4
:10478C00F96B3A6C41E80023BB63BB6B002BE5D1A2
:10479C007B681B6814333B623B6A53E8003FFB6148
:1047AC00FB6923F00103BB647B681B681433BA6C90
:1047BC00FA62BB62B96AFA6A41E800237B627B6ADF
:1047CC00002BE5D17B681B6B012B19D17B681B6817
:1047DC000C33FB60FB6853E8003FBB60BB6823F005
:1047EC0010037B647B681B680C337A6CBA617B6149
:1047FC007969BA6941E800233B613B69002BE5D13B
:10480C007B68202283F842207B6800221A6300BF59
:10481C005437BD4680BC704780B584B000AF78601B
:10482C007B685B6AFB60FB680022DA85FB68002210
:10483C00DA84F868FFF7D3FE00BF1037BD4680BDA1
:10484C0080B485B000AF78607B6893F84130DBB200
:10485C00212B3ED17B689B68B3F5805F14D17B68BC
:10486C001B69002B10D17B681B6AFB60FB681B88E3
:10487C001A467B681B68C2F308025A607B681B6A85
:10488C009A1C7B681A6208E07B681B6A591C7A6860
:10489C0011621A787B681B685A607B68DB8C9BB250
:1048AC00013B9BB27A681946D184002B0FD17B68EF
:1048BC001B68DA687B681B6822F08002DA607B6810
:1048CC001B68DA687B681B6842F04002DA600023E0
:1048DC0000E0022318461437BD4680BC704780B5F3
:1048EC0082B000AF78607B681B68DA687B681B68F5
:1048FC0022F04002DA607B68202283F8412078683D
:10490C00FFF764FE002318460837BD4680BD80B50E
:10491C008CB000AF78607B6893F84230DBB2222B0E
:10492C0040F0AE807B689B68B3F5805F17D17B68E5
:10493C001B69002B13D10023FB627B689B6ABB6253
:10494C007B681B685B689BB2C3F308039AB2BB6AB3
:10495C001A807B689B6A9A1C7B689A6226E07B684B
:10496C009B6AFB620023BB627B689B68B3F5805F2C
:10497C0007D07B689B68002B0AD17B681B69002BD6
:10498C0006D17B681B685B68DAB2FB6A1A7008E0B8
:10499C007B681B685B68DBB203F07F03DAB2FB6AEF
:1049AC001A707B689B6A5A1C7B689A627B68DB8DE9
:1049BC009BB2013B9BB27A681946D185002B5DD125
:1049CC007B681B68DA687B681B6822F02002DA605F
:1049DC007B681B68DA687B681B6822F48072DA607B
:1049EC007B681B685A697B681B6822F001025A615C
:1049FC007B68202283F842207B6800225A637B6804
:104A0C001B6B012B35D17B6800221A637B681B68FA
:104A1C000C337B617B6953E8003F3B613B6923F0BE
:104A2C0010037B627B681B680C337A6A3A62FB6109
:104A3C00F9693A6A41E80023BB61BB69002BE5D1F7
:104A4C007B681B681B6803F01003102B0AD1002332
:104A5C00FB607B681B681B68FB607B681B685B6882
:104A6C00FB60FB687B689B8D19467868FFF7C0FD7F
:104A7C0002E07868FCF7D0FC002302E0002300E0A1
:104A8C00022318463037BD4680BD000080B584B087
:104A9C0000AF78607B681B681B6923F440517B680E
:104AAC00DA687B681B680A431A617B689A687B68C2
:104ABC001B691A437B685B691343BB607B681B688B
:104ACC00DB6823F4B05323F00C037A681268B968DE
:104ADC000B43D3607B681B685B6923F440717B6874
:104AEC009A697B681B680A435A617B681B682C4A6D
:104AFC00934203D1FEF7F0FCF86002E0FEF7D8FC1D
:104B0C00F860FA6813469B0013449A001A447B68B9
:104B1C005B689B00B2FBF3F3224AA2FB03235B0905
:104B2C001901FA6813469B0013449A001A447B68D7
:104B3C005B689B00B2FBF3F21A4BA3FB02035B090D
:104B4C00642000FB03F3D31A1B013233154AA2FB7A
:104B5C0003235B0903F0F0031944FA6813469B0026
:104B6C0013449A001A447B685B689B00B2FBF3F217
:104B7C000C4BA3FB02035B09642000FB03F3D31A69
:104B8C001B013233074AA2FB03235B0903F00F021C
:104B9C007B681B680A449A6000BF1037BD4680BD15
:104BAC00003801401F85EB5103460244934200D16B
:104BBC00704703F8011BF9E770B500260C4D0D4C3E
:104BCC00641BA410A64209D100F01AF800260A4D65
:104BDC000A4C641BA410A64205D170BD55F8043BC9
:104BEC0098470136EEE755F8043B98470136F2E753
:104BFC00504C0008504C0008504C0008544C000815
:104C0C00F8B500BFF8BC08BC9E467047F8B500BFAD
:084C1C00F8BC08BC9E4670477D
:104C24000000000000000000010203040607080958
:104C3400000000000102030402030405060708093A
:0C4C44000A0B0C0D0E0F101001020000F6
:044C50003101000826
:044C54000D01000846
:0C4C58000024F400100000000100000027
:04000005080018AD2A
:00000001FF
